:020000021000EC
:10000000E03F082095010100FB000100E100010034
:10001000090101001901010029010100000000008F
:10002000000000000000000000000000A10201002C
:1000300039010100000000003103010059010100F5
:10004000C5150100C5150100C5150100C515010044
:10005000C5150100C5150100C5150100C515010034
:10006000C5150100C5150100C5150100C515010024
:10007000C5150100C5150100C5150100C515010014
:10008000C5150100C5150100C5150100C515010004
:10009000C5150100C5150100C5150100C5150100F4
:1000A000C5150100C5150100C5150100C5150100E4
:1000B000C5150100C5150100C5150100C5150100D4
:1000C000C5150100C5150100C5150100C85E020077
:1000D00000C00720CC010000D0C10720940400001C
:1000E00004207146084203D0EFF3098001F088BA7A
:1000F000EFF3088001F084BA704708B5014802F0B8
:10010000F5FEFEE7232F020008B5024802F0EEFEDE
:10011000FEE700BF2E2F020008B5024802F0E6FEFF
:10012000FEE700BF392F020008B5024802F0DEFEEC
:10013000FEE700BF442F020008B5024802F0D6FED9
:10014000FEE700BF512F020008B5024802F0CEFEC4
:10015000FEE700BF5F2F020008B500F01FFF00F0B0
:1001600009F9BDE8084000F02DBF0B4610B5401A54
:100170005C1AA24203D9C45843F8044BF8E710BDF7
:10018000034610B500221C1AA14202D943F8042BE1
:10019000F9E710BD164801F099FD154801F099FDE9
:1001A000144C154DAC4201D3144D07E094E8030004
:1001B0000C3454F8042CFFF7D8FFF3E7AC4206D216
:1001C00054F8080B54F8041CFFF7DAFFF6E70CF0BC
:1001D00057F901F017FB05F01BFC06F07DFA4FF410
:1001E000164001F02BFC064802F080FEFEE700BF3F
:1001F000E03F0820CC000100D8000100E000010031
:10020000732F020030BF704710B50C46094802F04A
:100210006DFE204602F06AFE074802F067FE0748BE
:1002200003F062FF4FF08043AA221A7200221A7074
:1002300010BD00BF482E0200712E0200C0C62D0066
:1002400008B5064802F052FE054803F04DFF4FF096
:100250008043AA221A7200221A7008BD9D2E020045
:10026000C0C62D0006480068006880F3088862B6A2
:1002700061B6BFF34F8FBFF36F8F00DF00BF000089
:1002800008ED00E04FF0807300E90A00034B40F8EE
:10029000202C40F80C3C4038704700BFF1020100B0
:1002A000074B19680868B0E8F00F80F30988BFF3BE
:1002B0006F8F4FF0000080F311884EF00D0E7047E5
:1002C000E8C207207047FFFF044B4FF080521A60CE
:1002D000BFF34F8FBFF36F8F704700BF04ED00E097
:1002E000EFF311804FF0100181F311887047002067
:1002F00008B5FFF7F5FFFEE708B5FFF7F1FF044A81
:10030000136801331360BFF34F8FBFF36F8F08BDC6
:10031000D0C1072080F311887047FFFF034B186896
:100320000138186008B9FFF7F5BF7047D0C1072042
:10033000EFF30980BFF36F8F0D4B1A6820E9F00FC0
:1003400010602DE908404FF0100080F3118800F094
:10035000D7FB4FF0000080F31188BDE80840196812
:100360000868B0E8F00F80F30988BFF36F8F70471B
:10037000E8C2072008B5FFF7B3FF00F029FA18B16B
:10038000044B4FF080521A600020BDE80840FFF790
:10039000C1BF00BF04ED00E04BF67F32024B1A6094
:1003A000072243F8042C704714E000E008B5094B1D
:1003B0001A6842F478021A601A6842F078421A60A9
:1003C000FFF7EAFF044B00221A60FFF74BFFFFF72D
:1003D00087FFFEE720ED00E0D0C1072008B501F05F
:1003E00065F9024BC3E9000108BD00BFD8C1072071
:1003F00008B501F05BF9024B1B68C01A08BD00BFCD
:10040000D8C1072008B501F051F9024BC3E900013A
:1004100008BD00BFD8C10720436800F108025B682F
:1004200030B59342436008BF53684FF0000508BFE2
:1004300043604368DC685B689A4208BFC368D96858
:100440008C42CD64F7D1436030BDFFFF08B5044C4A
:100450002368012B01D9FFF737FFFFF7D3FEF7E73A
:100460001CC20720064A13681968064B11B94FF0E1
:10047000FF3203E01268D268D26852681A6070478F
:10048000E8C1072000C007200E4B10B51A680446CB
:1004900050600D4A1268904207D2BDE810400B4AE6
:1004A00010681968043101F064B8094A10681968C5
:1004B000043101F05EF8074B1A68944238BF1C60A3
:1004C00010BD00BFE8C2072000C3072004C30720F7
:1004D000E8C1072000C007202DE9F0430C68002C7C
:1004E00047D04B6801F108075C684FF00208BC4236
:1004F00008BF7B684C6008BF4B604B68D3F80CC0EA
:1005000000F11C0300204C686468A7424C6004BFE3
:10051000CC684C604C68032AE46804F1340543F865
:10052000185CE56B43F81C4C43F8145CE56A03F86F
:10053000102C43F80C5C03D1A56A0DB103F8108CA4
:10054000656C43F8085CE56CD4F830E043F8045C73
:100550007646CEEB060516F8019BB9F1A50FF8D04B
:10056000AD08A44523F8205B00F10100CBD1BDE824
:10057000F0832046BDE8F0832DE9F84F81465020F6
:100580000E4615469A460A9FDDF830B000F0C4FDCD
:100590000446002800F0A480BBF1000F03D1A8009E
:1005A00000F0BAFD00E05846206318B9204600F07C
:1005B000C2FD95E0AD002A46A5210CF0D2F8236BD0
:1005C000043D1D4425F00705731E04F13302073670
:1005D00013F8011F02F8011F197809B19E42F7D1E3
:1005E000BB46092F28BF4FF0090B4FF00008261D0E
:1005F000304684F83B80C4F82CB0C4F844B0C4F84A
:10060000488000F0A7FF04F1180000F0A3FFCBF131
:100610000A03A36124616462C4F84C8052464946CF
:100620002846FFF72FFE0B9B206003B11C60FFF7ED
:1006300063FE2D4A2D4D1368DFF8D090013313600F
:100640002B6823BB2C601268012A28D1984609EB3D
:10065000080008F1140800F072FFB8F1C80FF6D1D5
:10066000DFF8ACA0DFF8AC80504600F068FF4046F1
:1006700000F065FF1E4800F062FF1E4800F05FFFBB
:100680001D4BC3F800A01D4BC3F8008007E01C4BB6
:100690001B6823B92B68DB6A9F4228BF2C60194A6C
:1006A0001949136801331360E26AE3630B6801249C
:1006B00004FA02F0034314200B6000FB0290314661
:1006C00000F04BFFFFF72AFE0D4B1B682BB12B6888
:1006D000DB6A9F4201D9FFF7F7FD2046BDE8F88F9E
:1006E0004FF0FF30BDE8F88F0CC30720E8C20720A9
:1006F000ECC2072014C30720E8C1072004C3072069
:10070000ECC1072008C3072028C307201CC207200C
:10071000F0C1072004C2072030B50F4B85B000247C
:100720000193039402940094234680220B490C48C1
:10073000FFF722FF012805460CD1FFF7D1FD094B39
:100740001D60094B1C60FFF749FE05B0BDE8304055
:10075000FFF72CBE05B030BD10C30720E72E020006
:100760004D040100ECC1072000C3072008B5FFF7C6
:10077000B7FD034B00221A60BDE80840FFF7A2BD99
:10078000ECC10720024A136801331360704700BFB1
:10079000E4C2072010B5FFF7AFFD034B1C68FFF75D
:1007A000BDFD204610BD00BF00C3072010B5FFF7F8
:1007B00097FD034B1C68FFF7ADFD204610BD00BF41
:1007C00000C30720014B1868704700BF0CC3072007
:1007D0003A4B2DE9F74F1B68002B30D1384B1A6884
:1007E00001321A601D685DB9364A374B11681868C6
:1007F0001060364A1960136801331360FFF732FE48
:10080000334C4FF0000B236801949D42314E324F20
:100810000BD3DFF8B080DFF8CC90D8F80020126856
:10082000A2B9019B4FF0FF321A603A68D16A1422D4
:100830004A43B258022A28BF4FF0010B34E0274A3E
:100840004FF0000B1368013313602DE0D8F800203F
:10085000D268D46861688D4202D2019B1960E4E7D6
:1008600004F1040A504600F09CFEA16A19B104F19B
:10087000180000F096FEE06AD9F80010012303FA90
:1008800000FE4EEA01014FF0140EC9F800100EFBF5
:100890000060514600F061FE3868E16AC26A914228
:1008A00028BF4FF0010BB8E70D4A1268002A18BFA5
:1008B0004FF0010B584603B0BDE8F08FE4C20720AB
:1008C00000C30720E8C1072004C30720E4C10720B4
:1008D00000C007201CC20720E8C2072018C207205A
:1008E0002CC3072028C307202DE9F843FFF704FD98
:1008F000274B1A68013A1A601B680BB1002441E0CB
:10090000244B1B68002BF9D0234D244EDFF89C802C
:100910002B6803B3EB680127DC6804F1040904F1D8
:10092000180000F03EFE484600F03BFEE26A3368E5
:1009300007FA02F114200B4300FB028049463360A2
:1009400000F00BFE164BE26A1B68DB6A9A42DFD3AB
:10095000144B1F60DAE7144C236833B9114B1C6841
:10096000012CCBD1FFF7B0FC0CE00E4D0126236823
:10097000002BF3D0FFF72CFF00B12E602368013B62
:100980002360F4E7FFF7CAFC2046BDE8F88300BF08
:10099000E4C207200CC30720ECC2072028C30720AD
:1009A000E8C207202CC3072018C207201CC207205A
:1009B00038B5FFF7E7FE174B02681B6854189342DF
:1009C00002D2A24207D901E0A24206D8A3422CBF1C
:1009D0000023012302E0002300E0012304608BB127
:1009E0000D4D2868043000F0DCFD40B92B680B4940
:1009F000D86A0A680123834022EA03030B60204679
:100A0000FFF742FDFFF770FF18B9BDE83840FFF768
:100A10005BBC38BD00C30720E8C2072028C30720FD
:100A200038B518B9BDE83840FFF74EBCFFF7AAFE4D
:100A30000C4B0D4D1B68C4182868043000F0B1FD44
:100A400040B92B680949D86A0A680123834022EA21
:100A500003030B602046FFF717FDFFF745FF002853
:100A6000E0D038BD00C30720E8C2072028C3072014
:100A70002DE9F04106461746FFF784FE1B4B1B6825
:100A80008B422CD800252C46DFF8708005F1B4018C
:100A900006EB441001224144FFF71EFD143D15F101
:100AA000C80F0444F2D1124B0222196806EB44101D
:100AB000FFF712FD0F4B04441968022206EB4410A5
:100AC000FFF70AFD044406EB441003220A49FFF72E
:100AD00003FD044427B1FFF78BFC386000E00024DD
:100AE000FFF702FF2046BDE8F08100BF0CC30720DE
:100AF000E8C1072004C3072014C307201CC2072035
:100B0000274B70B51A68274B12B101221A6070BDCD
:100B10001A60FFF76DFC244A244C1568A84204D9DA
:100B20002168CB6C5B1B0344CB6421681060226896
:100B30000968126B1D4B914204D81868196834314A
:100B4000FFF762FB236814221949186B174D0BF04D
:100B5000D3FD20B1286829683431FFF755FB154BC8
:100B60001B68B3FA83F3DBB2C3F11F03142000FB4D
:100B700003F211498D186E68083276680A4496426D
:100B800000FB031308BF72686E6008BF6A605B6891
:100B9000DB68236023685A6B084B5A6470BD00BF42
:100BA000E4C207202CC30720E0C10720E8C20720C9
:100BB000D32E020028C307201CC207200040024099
:100BC000F8B50446214DFFF797FB04B92C68261DA4
:100BD000304600F0E6FC60B9E06A142242431C4B48
:100BE0009B5833B91B4901230A68834022EA030357
:100BF0000B60A36A1BB104F1180000F0D2FC164F81
:100C00003146384600F0A9FCFFF788FB2B689C4270
:100C1000124B1B6810D11BB1BDE8F840FFF754BB65
:100C20000F4A39681268914202D1084A1360F8BD30
:100C3000BDE8F840FFF764BF3BB1FFF75DFBFFF78E
:100C400011FCBDE8F840FFF769BBF8BDE8C207201A
:100C50001CC2072028C3072014C30720ECC10720AB
:100C60000CC3072038B5124C0D462168183100F02E
:100C700080FC2068043000F094FC40B923680D49E2
:100C8000D86A0A680123834022EA03030B606B1CC5
:100C900006D1216808480431BDE8384000F05DBC49
:100CA000064B18682844BDE83840FFF7EDBB00BF8D
:100CB000E8C2072028C3072014C3072000C3072069
:100CC000C36870B5DC6804F11805284600F069FCBB
:100CD000114B1B6883B9261D304600F062FC0F499A
:100CE000E56A0A680123AB4013430B600C4B1420E8
:100CF000314600FB053001E029460A4800F02DFC92
:100D0000094BE26A1B68DB6A9A4283BF074B0120EA
:100D10001860002070BD00BFE4C2072028C3072070
:100D20001CC20720ECC20720E8C207202CC3072002
:100D3000034B1B680360034B1B684360704700BF95
:100D4000E4C1072000C3072038B50D460446FFF76D
:100D5000D3FA0E4B18682B685A1C10D00C4A216825
:100D600012689142626801D090420AD2811A8B4285
:100D700007D9121A13442B602046FFF7D9FF00242D
:100D800000E00124FFF7CAFA204638BD00C307205F
:100D9000E4C10720014B01221A6070472CC30720D1
:100DA00008B9064B1868026B1346981A13F8011B12
:100DB000A529FAD0C0F38F00704700BFE8C2072012
:100DC000054B1B6833B1054B1B68002B0CBF022081
:100DD0000020704701207047ECC10720E4C20720C3
:100DE0002DE9F041044600283BD01F4DC36A2A6814
:100DF000D26A934235D282691C4E002AA8BF2A6863
:100E00004FF01407A8BFD26A07FB0363A4BFC2F167
:100E10000A02826142699A4220D100F104084046E8
:100E200000F0BFFB124B48B9E06A4743F2592AB9B8
:100E300019680122824021EA02021A602A68012010
:100E4000D26A4146E2621C68904020431860142038
:100E500000FB0260BDE8F04100F07FBB2B68DB6A5D
:100E6000C362BDE8F08100BFE8C207201CC20720B2
:100E700028C30720F8B5044608B90020F8BD836CE4
:100E8000C16A426C013B91428364F6D0002BF4D1DD
:100E9000051D284600F085FB104E114A50B9E76A3F
:100EA0001421794373582BB910680123BB4020EA01
:100EB00003031360636C1068C3F10A01E362A1616C
:100EC000012404FA03F108431060142000FB0360BE
:100ED000294600F042FB2046F8BD00BF1CC2072097
:100EE00028C30720044B1A681AB119688A6C0132AA
:100EF0008A641868704700BFE8C2072038B5044606
:100F000008B9094B1C68FFF7F7F9E46CFFF770FAB2
:100F10000546FFF703FA64202A460023A4FB0001DC
:100F20000BF026F838BD00BFE8C2072038B5FFF740
:100F300029FC154D00242B19D3F8B43023B104F14A
:100F4000B4002844FFF768FA143C14F1C80FF2D13A
:100F50000E4B1A68126812B11868FFF75DFA0C4B55
:100F60001A68126812B11868FFF756FA0948036840
:100F70000BB1FFF751FA084B00221A60FFF742FA53
:100F8000BDE83840FFF7B0BC1CC20720E8C107200D
:100F900004C3072014C30720E0C1072010B5FFF7E2
:100FA00027FA064B064A196829B119681468CB6CF0
:100FB0001B1B0344CB64106010BD00BFE8C20720B8
:100FC000E0C1072008B5FFF713FA014B186008BD10
:100FD000E0C1072038B51546026C044632B90568F1
:100FE00045BB4068FFF746FF656024E06DB9806847
:100FF0000BF091FBA268236C13446268A3609342D8
:1010000018D323682846A36015E0C0680BF083FB63
:10101000236CE2685B4221681A448A42E2603EBF68
:1010200062689B18E360022D04D1A36B13B1A36B1C
:10103000013BA3630020A36B0133A36338BD37B525
:10104000446D0A46E36BA16B019099420ED201A94F
:101050002046FFF7BFFF636A054643B104F1240051
:10106000FFF72EFE002818BF012500E000252846C6
:1010700003B030BD03461A6C10B4084662B1D9689B
:101080005C681144A142D96028BF196810BC28BF10
:10109000D960D9680BF03FBB10BC704738B5044627
:1010A000FFF72AF904F12405A36C002B15DD636D0D
:1010B00043B100212046FFF7C2FF012809D1FFF705
:1010C00069FE06E0636A43B12846FFF7F9FD002890
:1010D000F5D1A36C013BA364E6E74FF0FF33A364B3
:1010E000FFF71CF9FFF708F904F11005636C002BFA
:1010F0000BDD23694BB12846FFF7E2FD08B1FFF78E
:1011000049FE636C013B6364F0E74FF0FF336364B7
:10111000BDE83840FFF702B910B50446FFF732FBCF
:1011200020460BF0CBFA0446FFF7DEFB0CB9FFF7C5
:1011300087F8204610BD10B5044640B1FFF722FBEA
:1011400020460BF0C3FABDE81040FFF7CDBB10BD41
:1011500038B504460D46FFF7CFF8206CE36B2268E4
:101160004343D1181B1A13446160E36000214FF020
:10117000FF33A163A2606364A36455B9236983B19B
:1011800004F11000FFF79CFD01280AD1FFF79CF83D
:1011900007E004F1100000F0D2F904F1240000F09F
:1011A000CEF9FFF7BBF8012038BD2DE9F0410F461D
:1011B0009046064608B900241CE05820FFF7ACFF13
:1011C00004460028F7D007FB06F00130FFF7A4FF24
:1011D0000546206050B1E663276401212046FFF7F1
:1011E000B7FF002384F85080636503E02046FFF7D3
:1011F000A2FF2C462046BDE8F08110B502220C4625
:101200000021FFF7D2FF00B1846310BD2DE9F04348
:101210000027044689461E46B84685B00192FFF76E
:101220006BF8A26BE36B9A4201D3022E1CD13246BB
:1012300049462046FFF7CEFE636D43B13146204656
:10124000FFF7FDFE01280BD1FFF73EF808E0636AC7
:1012500023B104F12400FFF733FDF3E70028F3D1B5
:10126000FFF75CF8012044E0019D1DB9FFF756F837
:1012700028463EE017B902A8FFF75AFDFFF74EF8DF
:10128000FFF780FAFFF738F8636C013308BFC4F842
:101290004480A36C013308BFC4F84880FFF73EF8D0
:1012A00001A902A8FFF750FDE8B9FFF725F8A76BE1
:1012B000E56BFFF733F8AF420FD1019904F110004D
:1012C000FFF7D0FC2046FFF7E9FEFFF70DFB08B162
:1012D0000127A4E7FEF7F8FFFAE72046FFF7DEFE56
:1012E000FFF702FBF4E72046FFF7D8FEFFF7FCFA12
:1012F000002005B0BDE8F08370B506465820FFF722
:101300000BFF0446E0B101230025C3634FF0FF3318
:10131000856345604364056083648560C5600564DA
:1013200080F850604565103000F009F904F12400A0
:1013300000F005F92B462A4629462046FFF766FFAE
:10134000204670BD2DE9F041044615461E468846EC
:10135000FEF7C6FFA26BE36B07469A4201D3022E4B
:1013600024D1324641462046FFF734FE10B10DB17C
:1013700001232B60A36C013313D1636D33B131466C
:101380002046FFF75CFE01280ED106E0636A5BB1E0
:1013900004F12400FFF794FC30B12DB101242C603E
:1013A00005E0A36C0133A364012400E00024384667
:1013B000FEF7B0FF2046BDE8F0812DE9F04300269E
:1013C000044688469946374685B00192FEF794FF59
:1013D000A36B3BB341462046E568FFF74BFEB9F1EE
:1013E000000F12D1A36B013BA363236813B9FFF76E
:1013F00079FD606023698BB104F11000FFF760FC98
:1014000001280BD1FEF760FF08E0636AE5602BB1AD
:1014100004F12400FFF754FC0028F3D1FEF77EFF0F
:10142000012049E0019D1DB9FEF778FF284643E001
:1014300016B902A8FFF77CFCFEF770FFFFF7A2F9D0
:10144000FEF75AFF636C013308BF6764A36C013376
:1014500008BFA764FEF762FF01A902A8FFF774FCAA
:1014600020BBFEF749FFA56BFEF758FFC5B92368FF
:1014700033B9FEF741FF6068FFF7B2FCFEF74EFF9D
:10148000019904F12400FFF7EDFB2046FFF706FE6B
:10149000FFF72AFA08B1012698E7FEF715FFFAE7E9
:1014A0002046FFF7FBFDFFF71FFAF4E72046FFF7A2
:1014B000F5FDFFF719FA002005B0BDE8F0832DE92E
:1014C000F041054688461746FEF70AFFAC6B064614
:1014D000C4B141462846FFF7CDFDAB6B013BAB6382
:1014E0006B6C01330AD12B695BB105F11000FFF77A
:1014F000E7FB30B12FB101243C6003E06B6C01339A
:101500006B6401243046FEF705FF2046BDE8F081FC
:1015100010B50446FEF7F0FEA46BFEF7FFFE204672
:1015200010BD806B704713B5002302AC44F8043D36
:101530000A462146FFF741FF019802B010BD00F1B5
:10154000080343604FF0FF32C360036100238260F1
:101550000360704700230361704743689A684B60DB
:101560008A609A685160996003680861013303607A
:1015700070470A6830B5531C01D1036907E000F1D8
:1015800008035C682568AA4201D32346F9E75A6834
:101590004A6091608B6059600368086101330360A1
:1015A00030BD4168826803698A6082685160596809
:1015B000884208BF5A60002202611868013818602A
:1015C0007047FFFF08B5FFF7E9FC094B094A197896
:1015D000094B1039C9B253F82130934203D107485F
:1015E00001F093FCFEE79847BDE80840FFF7EABC2E
:1015F00004ED00E04901010004C00720EC2E0200C8
:10160000036888B000934368114A0193836802938A
:10161000C36803930369049343690593836906933D
:10162000C36907930B4B9A64069ADA64059A013AE8
:101630001A65079A5A654FF08043AA221A7200224F
:101640001A70009B019B029B039B049B08B0704790
:10165000EFBEADDE0040024010B5104B104C012132
:101660000846236001F07CF923684FF0FF329A614D
:101670004FF47A72DA6100221A620A4A5A6240F220
:1016800009225A615A6942F040025A61064B04220B
:101690001A60182283F8022310BD00BF00800040AA
:1016A00038C3072060E3160000E100E0084B10B5E6
:1016B0001B68084C9A682188986889B28242F9D8D8
:1016C0000B46002242EA00021046194610BD00BF38
:1016D00038C3072034C3072010B504468EB006A8CF
:1016E00009F090FB0A9B069A05930B9B074904930C
:1016F0000C9B204603930D9B0293099B0193089B2F
:101700000093079B0CF04CFC0EB010BD9C2F020008
:1017100010B5044C23681BB9012009F06DFB206053
:10172000206810BD30C3072038B52B4C23682546F0
:101730001A6812F0100F0ED010221A60FFF7E8FF9F
:101740002368D96A06F0ECF82268936803F51C5305
:101750001033136238BD540707D504221A60FFF70F
:10176000D7FFBDE8384006F0E9B8D00707D5012219
:101770001A601A4A138801339BB2138038BD91074F
:1017800015D502221A60FFF71BFB022802D006F0D3
:1017900075F804E02A68536923F0080353612A6846
:1017A0009168D3690B4403F57A73D36138BD12078E
:1017B0000ED508221A60AA214FF0804211725521DD
:1017C00011729A6802F5B71202F558725A6238BD62
:1017D00003480CF0C5F9FEE738C3072034C30720DF
:1017E00061300200014B1878704700BF3CC30720EE
:1017F00003490B6803604B6843608B6883607047E4
:101800003DC3072030B585B001F02EF9684601F0E0
:10181000CFF87A4C009B2360019B6360029BA3601E
:1018200000F0A8F900F000FA754BB0FBF3F03C288B
:10183000744B05D829280DD2142808D83A2211E073
:1018400050280AD964280BD844F23A020AE041F23F
:101850003A0207E042F23A0204E043F23A0201E0BF
:1018600045F23A0268491A6008230B764B768B766C
:1018700081F82030654B982283F8052383F80623EE
:1018800083F8072383F80823902283F80A2383F838
:101890000B2383F80C23702283F80E2383F80F2385
:1018A000582283F8122383F8132383F8142383F830
:1018B0001523782283F81923A02283F8002383F8C4
:1018C000012383F8022383F8032383F8042383F896
:1018D000092383F80D2383F8102383F8112383F859
:1018E000162383F8172383F8182383F81A2383F821
:1018F0001B2383F81C2383F81E2383F81F2383F8FC
:10190000202383F81D2383F8212383F822234FF615
:10191000FF03CA680020134043F0BF6343F4003361
:10192000CB6000F0D9F961B662B64FF4164000F012
:1019300085F8374C374809F083F9374809F086F9BC
:10194000206800231946022280680CF035FA2068CE
:1019500000230222194640680CF02EFA09F0BAF969
:101960002E4A4FF080435A6003221A70AA221A723C
:10197000244C55221A72D4F88031294D13F0010FEE
:1019800009D0284800F0A2F801232B70D4F8803148
:1019900043F001030CE0D4F880319B070BD52248BB
:1019A00000F094F802232B70D4F8803143F0020346
:1019B000C4F880311FE0D4F8803113F0040319D04B
:1019C0001A4B9A6C1A4B9A4205D1052319482B7071
:1019D00000F07CF80AE0042317482B7000F076F83A
:1019E000D4F8803143F00403C4F880310F4B002257
:1019F0009A6400E02B7005B030BD00BF3DC30720E6
:101A000040420F0000C00F4000ED00E000E100E0A8
:101A100044C10720B51A01009D1A0100C0C62D005F
:101A20003CC3072082300200C53002000040024063
:101A3000EFBEADDE9F300200BC30020010B50446A0
:101A400000F0F2F82401B0FBF4F009F007FF0022E7
:101A5000104B09F0C7FD09F077FF012184B2032084
:101A600000F03EF90121032000F052F90A4B1A68F8
:101A700022F0F0021A601A6842F050021A60A3F5D0
:101A8000003380221A73220A1A71E4B203221C70F6
:101A90001A7310BD0000E03F00C00240034A136803
:101AA000DB07FCD5024B1878704700BF14C000401C
:101AB00000C00040034B044A187013685B06FCD555
:101AC0000120704700C0004014C0004008B5411E0E
:101AD00011F8010F10B1FFF7EDFFF9E70A20BDE89B
:101AE0000840FFF7E7BFFFFF034BAA22C3F88C2093
:101AF0005522C3F88C20704700C00F402DE9F04FED
:101B000000240C6014601C6040F2FF14DFF860A039
:101B10004FF4FA5504FB055B002606F1010CBBFBF4
:101B2000FCF8124FA8F58625A5F50E75BD4203D920
:101B30006646202EF1D113E0032505F10109B8FB1B
:101B4000F9FED64504D9B9F5807F4D46F5D1EFE7CA
:101B500086450C6016601D60F5D10120BDE8F08F50
:101B6000013C052CD4D10020BDE8F08F38320400B0
:101B7000A086010030B52B4985B0D1F88030002413
:101B800023F0020304AD45F8044D01940294C1F81A
:101B90008030FFF7A9FFD1F8803023F00103C1F8AE
:101BA0008030FFF7A1FFC1F80C41C1F88440FFF776
:101BB0009BFF2B46C1F8044102AA01A94BF68030D5
:101BC000FFF79CFF30B92B4602AA01A945F6C05089
:101BD000FFF794FF019B134963F30F04029B63F328
:101BE00017440023C1F80C31C1F88440FFF77CFF93
:101BF0000123C1F88030FFF777FFD1F8883009481A
:101C00005B01FAD5039BC0F804310323C0F8803090
:101C1000FFF76AFFD0F8883013F0407FFAD005B0A4
:101C200030BD00BF00C00F40234AD2F88830C3F354
:101C30000163032BD2F80C3103F003032AD1012BEB
:101C40000BD0022BD2F88830D2F88810D2F80401D9
:101C500014D0C3F30E02194B08E0D2F88830D2F842
:101C60008810D2F80401C3F30E02154B02FB0333B4
:101C7000C1F307420132B3FBF2F308E0C3F30E03F2
:101C800001331A04C1F307430133B2FBF3F3C0B2CB
:101C900001300EE0D2F80401012BC0B200F10100C6
:101CA00003D0022B03D0074B03E0074B01E04FF4B6
:101CB0000043B3FBF0F0704700C00F4000127A0001
:101CC00000366E0100093D00001BB70080F3098853
:101CD000704780F30888704780F311887047FFFFD2
:101CE00038B504460D46FEF707FB084A0123D2F833
:101CF000C410A3400DB10B4301E021EA0303C2F875
:101D0000C430BDE83840FEF709BB00BF00C00F403B
:101D10002DE9F0414FEA40080E46FEF7EDFA424643
:101D20000320002109F04CFC0A4F4246D7E9004548
:101D300024EA000425EA010506F00300002109F069
:101D40003FFC20432943C7E90001BDE8F041FEF70D
:101D5000E5BA00BFA8C10F400120704770B5054625
:101D6000164609B9002070BD4C1E14F8011F39B188
:101D70002B6832465B68284698470028F5D1F1E782
:101D8000012070BD38B504461546FFF7E7FF2A4627
:101D90002046BDE838400149FFF7E0BFFC300200B3
:101DA0002DE9F74307460D4690469946002402AEBA
:101DB00006F8014D3B684A461B683146384698474D
:101DC00078B19DF807200D2A03D00A2A1CBF2A707B
:101DD00001350134444503DA0A2AEBD1012000E041
:101DE0000020002CC4BF00232B7003B0BDE8F0839B
:101DF0000EB433B50446FEF7E3FF022806D10023F4
:101E00004FF0FF321946E068FFF7D7FA06AB0093B0
:101E1000009B059A2189606801930DF08BFB238953
:101E2000054698420ADB20F00F01103189B221816A
:101E300060680BF0FFFE60600028E9D14FF0FF32D0
:101E400061682046FFF78AFFFEF7BAFF022805D136
:101E500000231A461946E068FFF7D8F9284602B071
:101E6000BDE8304003B07047064B10B50360002357
:101E700004464360038103740120FFF73DFAE060EC
:101E8000204610BDE8300200044B10B50446036044
:101E9000406808B10AF01AFC204610BDE830020084
:101EA0002DE9F84345790446894690461E46089F29
:101EB0000DB100255FE0002BFBD0FEF781FF02286B
:101EC0002CD0236820222761A661A57584F8149080
:101ED00084F815801A60FFF7E9FB4FF47A7200234B
:101EE0000AF046F810F57A7641F1000700231A4609
:101EF0001946E068FFF761FA20B1A57DB5FA85F5CE
:101F00006D0938E0FFF7D2FB4FF47A7200230AF034
:101F10002FF88F4208BF8642E8D2EEE72B464FF4F7
:101F20007A722946A068FFF748FA0028C1D02B46EC
:101F30002A462946E068FFF740FA23682022A57563
:101F400084F8149084F815802761A66129461A60E8
:101F5000E0682B464FF47A72FFF72FFA20B1A57D87
:101F6000B5FA85F56D0900E0054600231A461946C5
:101F7000A068FFF74BF92846BDE8F88341F001015E
:101F8000FFF78EBF1FB5002404AB03F8014D0124F9
:101F90000094FFF7F3FF9DF80F0004B010BD01F0AF
:101FA000FE01FFF77DBF1FB504AC04F8013D01231E
:101FB00000932346FFF7F3FF04B010BD1FB50022C6
:101FC00004AB03F8012D0092FFF7D8FF05B05DF8D0
:101FD00004FBFFFF38B50025044601604571012070
:101FE000FFF78AF90322A06029460120FFF7DDF8F8
:101FF0002B462A46E0602946FFF7DFF92368094AA5
:10200000934201D10A2309E0074A934201D10B23ED
:1020100004E0064A93420CBF0C236323237120463D
:1020200038BD00BF00C0014000C0054000000A40AC
:1020300090F9043070B50B2B05460C46164606D0B9
:102040000C2B07D00A2B34D10121072004E00121F9
:10205000132001E001211A20FFF742FEB6F57A7F36
:102060009ABF4FF47A71714313492B68B4FBF1F1B5
:102070006C229A61490828224A436420B2FBF0F29C
:102080001A613C225143B1FBF0F100225961DA6040
:102090001A625A629A6240221A6095F9043001204D
:1020A0005909064A03F01F0300FA03F342F82130EE
:1020B00070BD002070BD00BFA086010000E100E0FF
:1020C000036830B559680246282945D009D8102937
:1020D00024D018292AD0082977D1027D02F0FE02E7
:1020E00037E0402954D00AD838296ED1017D5B6889
:1020F00011F0010F937514BF0120022030BD50294B
:102100004ED0582961D181699B680B7003682021EA
:102110009961102119600821996152E0027D42F015
:1021200001029A6008229A61002030BD14692020C3
:102130009861082164B99861102018609961196844
:10214000C906FCD4137DDD074CBF0120022030BD41
:10215000527D9A609961E7E7007D10F0010001D09F
:1021600020222CE0116949B92021996110211960C0
:10217000082199611968CC06FCD4E3E79469013918
:1021800014F8015B9D609461116108229A6130BD71
:1021900002692021012A99614FF004020FD80CE056
:1021A0009B68816904220B70836901338361036931
:1021B000013B012B0361036801D19A61B2E71A6008
:1021C000B0E71968C806FCD4BCE7596891752021AE
:1021D000996110211960082199611968C906FCD418
:1021E000B0E7FFFF13B50446FFF76AFF68B10023AD
:1021F00002AA42F8043D1946E068FFF7A3F8019BE4
:102200001BB1034B4FF080521A6002B010BD00BFEB
:1022100004ED00E010B50446024B0360FFF734FE06
:10222000204610BD2431020010B50446FFF7F2FF2E
:10223000204608F0E3FD204610BD10B50446FEF729
:10224000BFFD022807D1E069FFF762F918B101204C
:10225000FEF7E6FBF7E7012010BD37B5044615464B
:102260008DF80710FEF7ACFD022808D09DF8072076
:1022700063691A706269137D5906FCD517E0002363
:102280002A460DF10701E069FEF7C0FF80B16369DE
:102290001B7D5B060BD500231A460DF10701E06993
:1022A000FFF78BF818B163699DF807201A700120B9
:1022B00003B030BDF8B5064614460F4609B90020F4
:1022C000F8BD8369002BFAD0FEF77AFD022809D108
:1022D000002322463946B069FFF76FF8003018BF77
:1022E0000120F8BDFFF7E2F94FF47A72002309F0FC
:1022F0003FFE20440446002500231A463946B069B3
:10230000FFF75BF858B9FFF7D1F94FF47A72002361
:1023100009F02EFE8D4208BF8442EDD2CFE70120A6
:10232000F8BDFFFF4369802210B51A730446006AA6
:102330000901B0FBF1F009F091FA0022074B09F016
:1023400051F909F001FB636980B2020A1A716369ED
:10235000C0B21870636903221A7310BD0000E03F19
:1023600073B54269002301938DF8033093680446E6
:1023700003F00E03042B17D00C2B15D0022B35D1F4
:10238000C069FFF7CEF8E38C984203D9E069FFF704
:10239000C8F8E0841026002501AA0DF10301E069C8
:1023A000FFF78DF820BB2DE0FEF700FA0025A062B4
:1023B00063691A7DD2070ED51B7801AA8DF8033008
:1023C0000DF103010023A069FEF7BCFF019B002B68
:1023D00018BF0125ECE7A069FFF7A3F8A38C98428A
:1023E00010D9A069FFF79DF8A0840BE0137D0EE0E3
:1023F00063699DF803201A70019B002B18BF01250B
:10240000013EC9D11DB1034B4FF080521A6002B09A
:1024100070BD00BF04ED00E038B504460D46FFF77F
:1024200023FD064B656123600023A361E361236202
:10243000A384E384A362204638BD00BF2431020098
:1024400070B516461D46264A43690446934201620A
:1024500005D101210320FFF743FC202211E0214A8E
:10246000934205D101211820FFF73AFC802208E0B1
:102470001D4A93422FD101211920FFF731FC4FF45F
:1024800080721A4B31461A60636941221A7262697E
:102490002046137A43F006031372FFF743FFA26945
:1024A00042B9082D28464FF00101B8BF0820FEF7B9
:1024B0007CFEA061E2693AB9049801210828B8BFFE
:1024C0000820FEF772FEE061636907225A60A36983
:1024D0000BB1E3690BB9002070BD012070BD00BFD6
:1024E00000C000400080094000C0094000E100E059
:1024F00008B501211D20FFF7F3FB034B01221A63EE
:102500001A6BD207FCD508BD0040005073B54FF0E0
:10251000FF33B1F5805F01934AD2284B1C69E40771
:1025200048D4274C2469E60744D4264CE5686D0757
:1025300001D5A568FAE7244C0325A5602561234C45
:102540001E4E1C60254622B101AC746041F000446F
:1025500002E0706041F00844F46000249C6041F2A5
:1025600006041C61164C1AB1206041F0806101E044
:1025700001AA22600022E1606560A2604FF4086257
:1025800022611A6942F001021A61226942F00102D5
:1025900022610C4A516A41F003015162D868C0F3CC
:1025A0000B000028FAD1536A23F00303536202E0C0
:1025B000012000E0022002B070BD00BF20410050A9
:1025C000004100500000034000400050080003405C
:1025D000074A0121136801FA00F023F0E06323F0B9
:1025E000FF031360136843F0807303431360704765
:1025F0000040034007B500230B4A019352680B4883
:10260000C2F30B12ADF802200DF1020101AA00681D
:10261000FEF798FE019B1BB1054B4FF080521A60EC
:1026200003B05DF804FB00BF004003404CC307202B
:1026300004ED00E010B5FFF7F7FA0121C4080C2003
:10264000FFF74EFB03210C20FFF762FB114A4FF40A
:102650000013114913600223B4FBF3F0884204D83D
:10266000116841EA0323136003E00233B3F5807F6E
:10267000F2D10120FEF740FE084B00221860022133
:102680000120FEF792FD064B4FF480021860054BC7
:102690001A6010BD004003403F5DC60050C30720D4
:1026A0004CC3072000E100E0F7B507284FF0000415
:1026B0000546ADF806402AD8FEF782FB0228164EE2
:1026C00019D1164F234621464FF0FF323868FEF7E6
:1026D00074FE2846FFF77CFF23460DF106014FF0FC
:1026E000FF323068FEF769FE2346224621463868ED
:1026F000FEF78CFD0BE02846FFF76AFF00231A4621
:102700000DF106013068FEF758FE0028F6D0BDF83E
:10271000060003B0F0BD00BF4CC3072050C3072024
:1027200070B5174B0E465C69164B05461A6C1A209D
:1027300022F470021A641A6C04F4406442F4200219
:102740001A64996E41F440619966196821F4700128
:102750001960196841F4200119600321FFF7D8FAC4
:10276000FFF762FAB4F5406F06D13246C108284639
:10277000BDE87040FFF75CBC01236B71002070BDA9
:1027800000C0092000C0024010B504460249FFF70E
:1027900021FC204610BD00BF00000A4038B5074CA0
:1027A000236833B91C2008F027FB0546FFF7ECFF30
:1027B00025602068BDE83840FFF714BD54C30720EA
:1027C00010B50446024B0360FFF75EFB204610BDC8
:1027D0002431020010B50446FFF7F2FF204608F04E
:1027E0000DFB204610BDFFFFF7B50D460D49044611
:1027F0000868164620F0F000086008681F4640F0A0
:102800005000086001210320FFF782FAFFF70CFA5D
:102810000097014633462A462046FFF711FE03B0D3
:10282000F0BD00BF00C0024010B504460349FFF7E9
:10283000F3FD034B2046236010BD00BF00C00040E5
:102840009831020038B5074C236833B92C2008F0C2
:10285000D3FA0546FFF7E8FF25602068BDE8384059
:10286000FFF77EBD58C3072010B50446024B036036
:10287000FFF70AFB204610BD2431020010B50446C4
:10288000FFF7F2FF204608F0B9FA204610BDFFFF1F
:1028900010B504460349FFF7BFFD034B20462360F4
:1028A00010BD00BF008009400032020038B5074C5F
:1028B000236833B92C2008F09FFA0546FFF7E8FF9C
:1028C00025602068BDE83840FFF74ABD5CC307209B
:1028D00010B50A4C23681BB90120FEF70DFD2060DE
:1028E000FEF76EFA022808D1002320684FF0FF326D
:1028F0001946BDE81040FEF760BD10BD60C307205B
:1029000010B5FEF75DFA022808D1BDE81040044872
:1029100000231A4619460068FEF778BC10BD00BFB8
:1029200060C3072008B5044B1B689847034A137A15
:1029300043F00103137208BD64C3072000000B407D
:102940001FB50446054B0DF1100E0FCB0EE90F001D
:102950000EEB840454F8100C04B010BD14320200C5
:1029600073B50E460546FFF7EBFF04460E4B0121FB
:10297000186802AB1D440090019015F8080CFFF791
:10298000AFF9012115F8040CFFF7C2F90023012269
:10299000A36062602367FFF747F9044BB0FBF3F0D5
:1029A0004643E66002B070BD2432020040420F0090
:1029B000F0B5124B87B06C461D46074693E80700FA
:1029C0008DE8070003AE93E8070086E807000C22B5
:1029D0003146204609F090FE40B195E8070084E8B2
:1029E000070095E8070086E80700F0E703CC3860A9
:1029F00020687960B860384607B0F0BD14400240E6
:102A0000184B00221A720278C2F3050283F82020C4
:102A10004278C2F3050283F824208278C2F30402CC
:102A200083F82820C278C2F3020283F830200279AA
:102A3000C2F3040283F82C204279C2F3030283F824
:102A40003820C279817902F00F0241EA02229A8786
:102A5000427A017A02F00F0241EA02229A860122AA
:102A60001A727047004002401FB501210920FFF78C
:102A700037F9304B01221A7201A8FFF799FFBDF810
:102A80000A3003F62603C3F30B030F2B1ED89DF861
:102A9000053003F03F033B2B18DC9DF8043003F0B6
:102AA0003F033B2B12DC9DF8063003F01F03172B6E
:102AB0000CDCBDF80C30C3F30B03B3F5B77F05DABC
:102AC0009DF8093003F00F030C2B2FDD9DF8083023
:102AD000012262F304038DF808309DF8093001A843
:102AE00062F3030340F2DA728DF80930BDF80A3060
:102AF00062F30B03ADF80A309DF807306FF3020361
:102B00008DF807309DF806306FF304038DF806301A
:102B10009DF805306FF305038DF805309DF80430FE
:102B20006FF305038DF80430FFF76AFF05B05DF819
:102B300004FB00BF0040024007B501A80CF072FA88
:102B400001A809F0B0FB03B05DF804FB10B5044622
:102B5000024B0360FFF798F9204610BD24310200B4
:102B600010B50446FFF7F2FF204608F047F920466B
:102B700010BDFFFF10B504460349FFF74DFC034BA2
:102B80002046236010BD00BF00C009407C32020017
:102B900038B5074C236833B92C2008F02DF90546C9
:102BA000FFF7E8FF25602068BDE83840FFF7D8BB95
:102BB00068C30720026830B5D36913F0040310D04E
:102BC00002F1300301F1100451F8045BA14243F813
:102BD000045BF9D1438A01334382212353600120EE
:102BE00030BD184630BDFFFF2DE9FF41254D4401A2
:102BF00055F804802F19D8F80C60D8F80830334302
:102C0000D90719D57868FEF78CFCFB8908F12001FB
:102C1000984288BFF88100232F191A467868FEF77A
:102C200091FB18B1BB8A0133BB8202E0BB8901333F
:102C3000BB810423C8F8043040F20263334093B1EF
:102C40002F19B868FEF76DFC3B8A0022984288BFB6
:102C500038822F196946B868FEF731FC18B1694609
:102C60003846FFF7A7FFB20603D52B199B693046FC
:102C70009847330703D52C44E3693046984704B09E
:102C8000BDE8F08190C00720084B10B5D3F8C440D0
:102C9000A20402D50020FFF7A7FF630404D5BDE816
:102CA00010400120FFF7A0BF10BD00BF00C00F40C3
:102CB00070B590F853508AB0044605B9457C284653
:102CC00004F08CFC002294F8523084F8522094F8DE
:102CD000542006460092012104F13A02284604F0ED
:102CE000B1FA044670B1314602A804F0BFFD48B104
:102CF0009DF80C3003F0C003C02B03D19DF80830C1
:102D0000AB4200D0002420460AB070BD10B5044686
:102D1000024B0360FFF7B8F8204610BDD432020022
:102D200010B50446FFF7F2FF204608F067F820468A
:102D300010BD70B50E46037E90F8311004469942DE
:102D400034BF012500250BD31146113004F086FD58
:102D500030B1257E0023ED1A84F8313018BF0125EB
:102D60003DB194F831305A1C84F831201C44637E04
:102D70003370284670BD10B590F85240621CD2B234
:102D80000444172A80F8522084F83A1002D90368C4
:102D90009B689847012010BD70B50446FFF764F8A2
:102DA0000C4B002523602126032384F8543032463F
:102DB000294684F8535004F1110009F0D2FC324640
:102DC000294604F1320009F0CCFC072004F008F990
:102DD000204670BDD432020070B505460E4614463A
:102DE0007CB12B686BB12268134208D063689847A6
:102DF00022682B6823EA02032B6023683360A468EF
:102E0000EEE770BDF8B5012484400F4616461D4616
:102E100010D079B10C2009F051FC58B133682A6800
:102E20008360054B80E8900014434FF4001230603B
:102E30002C601A60F8BD00BF00E100E01FB5184C1F
:102E40001849636868460093A3680193636A029314
:102E5000A36A0393144B1A68FFF7BEFF134B114983
:102E60001A6801A8FFF7B8FF114B12491A6802A8A7
:102E7000FFF7B2FF104B0F491A6803A8FFF7ACFF2A
:102E8000009B0BB9019B13B14FF0FF33E360029B32
:102E90000BB9039B13B14FF0FF33E36204B010BDD5
:102EA000808002408C80024074C3072078C30720D2
:102EB0006CC30720AC80024070C3072010B41446D6
:102EC0000029064A0649074B18BF1346064A18BF91
:102ED0000A46214610BCFFF795BF00BF9480024010
:102EE00078C307209080024074C3072010B50446C1
:102EF000FDF702FA013C14F8010F10B1FEF7DAFDFC
:102F0000F9E7BDE81040FDF709BA0FB470B5C2B0DB
:102F100046AC54F8046B4FF480752A46002102A891
:102F200009F01FFC23463246294602A801940CF002
:102F300001FB044602A8FFF7D9FF204642B0BDE8D6
:102F4000704004B07047FFFF37B5002302AC44F86F
:102F5000043D0C4D10B9034602460CE00A222146FE
:102F60002868FEF72AFA034648B907490A88013259
:102F70000A804FF0FF3221462868FEF71EFA0198BA
:102F800003B030BD98C3072082C30720F0B50024EA
:102F9000ADF50D7D0D4607460294FEF787FB4FF415
:102FA0007A72002308F0E4FF4FF4097206462146C6
:102FB00003A809F0D6FBDDB112221D4903A805F0D4
:102FC00049FF044680B9069903A806F0BEF90446F5
:102FD00030B902AB2A46394603A806F08DF80446FC
:102FE00003A806F0A0F904E012480AF047FD00E04B
:102FF0002C46FEF75BFB4FF47A72002308F0B8FF13
:103000000D4B801B1A889042029A88BF1880954207
:103010000CBF0126002606D0059B214600930748D9
:103020002B460AF02BFD30460DF50D7DF0BD00BF9F
:10303000183302002233020080C307203633020017
:103040002F4B2DE9F74F1D68DFF8BC902E46DFF8B7
:10305000BCA005F5806802AF002347F8043D4EF69A
:1030600060223946D9F80000FEF7A7F908B1019BA4
:103070002BB9711B2846FFF789FF2E46EBE7D9F8DD
:103080000000FEF745FABAF80030019C0130984282
:1030900088BFAAF8000020460BF063F80A232354E7
:1030A00000F1010B019A002106EB0B0402F80B1052
:1030B000A045019916D8C6EB0802304609F02BFB53
:1030C000C8EB04044FF480612846FFF75FFF3CB172
:1030D0000199C4EB0B0322461944284609F01BFB57
:1030E0002C4403E05A46304609F015FB05480023FE
:1030F0004FF0FF3239460068FEF788F82646AAE707
:1031000094C3072098C307207CC307209CC30720D3
:1031100073B502AC44F8040D0D4629B100234FF0FD
:10312000FF3221460A480EE006460BF01AF80A2341
:103130003354019B411C5D540198FFF727FF2B4638
:103140002A46214603480068FEF760F802B070BDC9
:103150007CC3072098C3072007B5FDF731FE02287E
:103160000CD1084B1B684BB10748002302A941F85A
:10317000043D4FF0FF320068FEF748F803B05DF8F9
:1031800004FB00BF94C307207CC3072003289ABF19
:10319000024B53F820000020704700BF84C3072073
:1031A000014B1888704700BF82C30720014B188865
:1031B000704700BF80C30720014B1888704700BFCD
:1031C0009CC307202DE9F0412E4D86B02C68804627
:1031D000002C54D14FF48060059409F06FFA2A4E08
:1031E000286040B92868002835D009F06FFA254BCF
:1031F00000221A602FE0224604210A20FDF7D5FFA5
:10320000224F2246386004210A20FDF7CEFF3B689A
:103210003060002BE6D00028E4D00A24962009F084
:103220004DFA05900028DDD000231A4605A9306824
:10323000FDF7ECFF013CF1D1039402940194CDF829
:10324000008023464FF4C07211491248FDF794F9EB
:103250000028C7D013E033681BB90F480AF080FC80
:103260000DE00A2400231A4605A93068FEF7A5F8E8
:1032700010B1059809F02AFA013CF3D1EDE706B048
:10328000BDE8F08194C3072098C307207CC30720C2
:10329000693302004130010070330200012303FA58
:1032A00000F0044B1A7809B1104301E022EA000053
:1032B00018707047D0C007202DE9F04F9A46444B54
:1032C00097B01B6806460C461546002B7DD00FA80C
:1032D000FFF76EFBFEF7EAF94FF47A72002308F06D
:1032E00047FE8146FDF76CFD3A4B821ED2F1000885
:1032F00016AF48EB02080FCB07E90F005CB12F2196
:1033000020460AF081FF20B95C2120460AF07CFFAC
:1033100010B1441C00E0304CDFF8BCB04046002D3A
:1033200008BF5D46FFF710FE9DF83E1095F800C0FF
:1033300001F01F0E9DF83D109DF8412001F03F0166
:103340000B919DF83C109DF8403001F03F010C912D
:1033500016A901EB860151F8101C03F01F030D9113
:103360001E49CDF800E0BCF1000F08BF5946079197
:103370000D9902F00F0204910C99CDF820A0029152
:103380000B990695019105941549CDF80C900746C7
:103390000AF006FE21ABC0F19501209A38440E9345
:1033A0000CF0C8F80F4A414652F82630384601332F
:1033B00042F82630FFF7ACFE0B4B1B7843FA06F6BB
:1033C000F30702D538460AF0CBFB17B0BDE8F08F03
:1033D00094C3072008330200873C02003435020002
:1033E0009533020084C30720D0C007200FB40E4BD2
:1033F00037B51B6893B1FDF7E3FC831E5C425C416B
:103400002046FFF7A1FD054607AB9521069A0193DB
:103410000CF090F821462846FFF77AFE03B0BDE88D
:10342000304004B0704700BF94C3072001207047AC
:103430000120704701207047936810B4013B002BB6
:10344000936008DA9469A34202DBCBB20A2B02D163
:1034500010BC0CF0ABB81368581C10601970C8B2DF
:1034600010BC70470A4B70B51B780D467BB1094EF6
:10347000441E14F8011F21B130688268FFF7DCFF99
:10348000F7E725B12846BDE870400AF069BB70BD7A
:103490009EC3072044C1072070B50C460B4E451E45
:1034A00015F8011F21B130688268FFF7C5FFF7E703
:1034B00024B12046BDE870400AF052BB034B0A21FC
:1034C0001868BDE870408268FFF7B6BF44C10720A6
:1034D0003E4B2DE9F3411A68036904469A4236D1FE
:1034E00000273D4600213A48FFF7BCFF3949606A92
:1034F000FFF7B8FF00213848FFF7B4FF374B1E68CD
:103500008EB1D6F800800137D8F8003040461B69EC
:10351000766898470028F3D13149D8F82400FFF79E
:10352000BBFF0125ECE70DB92E4E06E031462E48D3
:10353000FFF7B2FFFDF71AF909E0AF4207D0002309
:103540001A4619463068FDF761FE0135F5E7254852
:1035500000234FF0FF3219460068FDF72EFFFDF7FC
:1035600019F902AE46F8040DFDF714F90546606836
:1035700018B1E168FDF7D7FFA0602368A16A5B6915
:1035800020469847074630B9606A1849FFF784FF1C
:103590003846FDF715FBA3690133A361236A1BB10C
:1035A000FDF7F8F8854206D3E1690029DFD03046FF
:1035B000FDF7FEF9DBE7FDF7EDF8256A0544206924
:1035C000FDF7EEFB80006061EEE700BFACC30720B3
:1035D000083402000C34020039340200B0C3072062
:1035E00066340200A8C307207F340200A73402001B
:1035F0002DE9F043324E85B0316821B93148FFF7EB
:103600004BFF012058E04FF000084546C14600211D
:103610002D48FFF727FF3468ECB12768646807F18D
:103620001003FA6ACDF80C90CDF80890019397F842
:103630003030C2F38F020093796A3B46234808F189
:103640000108FCF799FF0028E6D12149786AFFF7C5
:1036500023FF0125E0E721464046FDF7CEFD1D4B47
:10366000186020B921461C48FFF716FF01250021EC
:103670001A48FFF7F7FE34686CB1276864683B6846
:1036800038469B6898470028F6D11549786AFFF7B5
:1036900003FF0125F0E72046124B3268196842B15A
:1036A00017685268FE6AB042F9D23969304601247F
:1036B000F5E704B11960284605B0BDE8F08300BF06
:1036C000B0C30720D734020005350200D134010011
:1036D0001C350200A8C30720373502005A35020006
:1036E00075350200ACC3072010B5044638B1082078
:1036F00007F082FB024B04601A681860426010BD3C
:10370000B0C307200C4B10B518700846FFF770FFC8
:10371000044650B901460948FFF7A4FEFDF706FC30
:10372000FCF7FAFF2146064801E006480021BDE803
:103730001040FFF7B1BE00BF9EC3072089350200CD
:10374000A4350200C835020070B50B4D416205601A
:10375000002545608560056145618561C5614EF65E
:10376000602504994FF47A76C66005628162C26270
:1037700080F8303070BD00BFF033020008B500693A
:10378000FDF7BCFBC0B208BD044B1A6890423ABFBB
:103790005B6853F820000020704700BFA0C30720DB
:1037A00013B5002302AA42F8043D0C4600681946EE
:1037B000FDF7C8FD019B1BB1236843F001032360A3
:1037C000012002B010BD30B5044685B001A80D46F9
:1037D000FFF7EEF89DF80630227903F01F039A42B6
:1037E0001CD19DF80530627903F03F039A4215D150
:1037F0009DF80430A27903F03F039A420ED120686D
:10380000002304AA42F8103D19460068FDF79AFD0E
:10381000009B1BB12B6843F001032B60012005B016
:1038200030BDFFFF30B5224A87B01378214C43F0FA
:1038300001031370002503A80295FFF7B9F82B4682
:10384000009502AA1C49206800F0B2FA9DF80C30DD
:1038500013F03F031BD1009302AA1749606800F0E0
:10386000A7FA9DF80D3013F03F0310D1009302AA80
:103870001149A06800F09CFA9DF80E3013F01F0368
:1038800005D1009302AA0C49E06800F091FA0023E8
:103890000A48009302AA0A49006800F089FA029BCC
:1038A0001BB1084B4FF080521A6007B030BD00BF0B
:1038B00000400240B4C30720A1370100C4C3072061
:1038C000C737010004ED00E010B504460123002ACB
:1038D00023704FF00003D4BF1A4602F1FF32A160FB
:1038E0000846E36023616260002108F03AFF204649
:1038F00010BD38B50446806818B123780BB908F0BC
:10390000E5FEE5682DB12846FFF7F3FF284607F0EE
:1039100075FA204638BD80680AF023BC40687047BD
:10392000836800221A7070470EB403B503AA52F8D8
:10393000041B806801920BF02FFE02B05DF804EBCF
:1039400003B070470CB4F7B5002408AB02AD53F8D0
:10395000047B45F8044D2A4680680E4600930BF020
:10396000CEFA78B13B1B002B0CDD009B1A1D1B68A7
:10397000009203B118602A46314600200BF0BFFACE
:103980000134EEE7204603B0BDE8F04002B07047D6
:1039900008B50B46816818460AF0D1FBB0FA80F0F2
:1039A000400908BD08B580680AF08EFBB0FA80F0C7
:1039B000400908BD2DE9F74F0F788A46A7B38668FE
:1039C0004FF0FF3533788BB333787BB338460BF049
:1039D0003DFB014630460AF0A4FB38B938460BF0EF
:1039E00041FB014630460AF09CFBE8B10446851BCA
:1039F0000AF10108461C14F8010FC14688B198F875
:103A000000B008F10108BBF1000F0AD00BF01EFB5B
:103A1000019058460BF01AFB019B8342EBD04FF00C
:103A2000FF3599F80030CEE74FF0FF35284603B058
:103A3000BDE8F08F08B5FFF7BDFF013018BF0120CA
:103A400008BD10B5846820460AF0F1FB08B1001BE0
:103A500010BD4FF0FF3010BD70B5044608460D464E
:103A60000AF07FFB06462046FFF755FF864208DC3A
:103A700032462946A0680AF09FFBB0FA80F0400960
:103A800070BD002070BD70B5054608460C460AF0B2
:103A900068FB06462846FFF73EFF864208DC3246B2
:103AA000A96820460AF066FBB0FA80F0400970BDB4
:103AB000002070BDF8B5044608460E4617460AF0C9
:103AC00050FB05462046FFF726FF85420CDCA36825
:103AD000314620465D5DFFF7D6FF30B1BD4204D0D0
:103AE000B5FA85F04009F8BD0020F8BD38B50C46A0
:103AF0000546FFF710FF002C024609DDA04207DB58
:103B0000A868121B0132011908F010FE012038BD0F
:103B1000002038BD38B50C460546FFF7FCFEA04234
:103B2000A4BFAA68001B4FF00003A6BF13540120D6
:103B3000184638BD70B50D4606461446FFF7EBFE35
:103B4000002D11DBA8420FDD002C0DDD421B94423D
:103B5000A8BF1446B068121B611901440132284401
:103B600008F0E4FD012070BD002070BD70B5054671
:103B70000E46FFF766FF431C044609D030460AF0A4
:103B8000F0FA214602462846BDE87040FFF7D2BF52
:103B9000002070BDF8B585680F462B460024591BE0
:103BA00013F8016B3EB1BC4203D09642F7D1013409
:103BB000F5E7FFF79BFF201C18BF0120F8BDF8B503
:103BC00006460D46FFF7A7FE07460024BC420EDA64
:103BD00028460AF0C6FA2B465A1B824207DAB16819
:103BE00013F8012B095D9142F6D10134EEE72CB1B7
:103BF00021463046BDE8F840FFF778BFF8BDF8B57C
:103C0000054608460C460AF0ACFA07462846FFF778
:103C100082FE0026013800280DDB23461A1B97423E
:103C200009DDAA6813F801EB1118125C7245F5D191
:103C30000E700138EFE7F8BDFFF7AABE8068704745
:103C4000806808F02CBB38B50C460546FFF763FECC
:103C5000A042A868C8BF001938BD037870B50546F2
:103C6000FBB909B1013100E00421102491FBF4F407
:103C7000AE68013424016C604EB9204608F01EFD88
:103C8000A86048B12246314608F06BFD04E0611C93
:103C9000304609F0CFFFA860A868003018BF0120A7
:103CA00070BD002070BD0022027042608260C26060
:103CB0000261FFF7D2BF10B50446FFF7F4FF2046BC
:103CC00010BD43688B4201DAFFF7C7BF0120704780
:103CD0000EB4F3B5064607AB53F8047B00240093FB
:103CE000B06880B17568009B01353A46294601935A
:103CF0000BF020FC8542044605DC411C3046FFF7F2
:103D0000E0FF0028ECD1204602B0BDE8F04003B04F
:103D1000704738B505460C46FFF7FDFD6B68211866
:103D2000994205DD2846BDE838402031FFF795BFB0
:103D3000012038BD38B5044608460D460AF011FA90
:103D400001462046FFF7E5FF20B12946A0680AF0AA
:103D5000D9F9012038BD07B50023ADF8043002AB16
:103D600003F8041D1946FFF7E5FF03B05DF804FBF7
:103D700070B5044608460D460AF0F3F9636801463B
:103D800098420DDD2046FFF768FF064640B962689D
:103D90002946A0680AF025FAA2686368D65470BD67
:103DA0002946A068BDE870400AF0D3B9FFF7E0BF2C
:103DB000F8B50D4616461F4608B90120F8BD002982
:103DC000FBD00468002CF8D0069B3A4631462068A8
:103DD000A84708B16468F5E7F8BDFFFF2DE9F84F83
:103DE0001C4F04468846002B18BF1F46914672B3ED
:103DF00069B3436882689A421CD305685D1919D279
:103E0000A900C06809F016FFA668E0604FEA860ABC
:103E1000B5420ED9102006F0EFFF83461022002194
:103E200008F09FFCE368013643F80AB00AF1040A7F
:103E3000EEE76560A368E268591C52F823300A9ADD
:103E4000A160C3F800905F60C3F80880DA60BDE845
:103E5000F88F00BF873C02002DE9F0430C4691B07B
:103E600081464FF0FF321D492046FDF777FF0025C0
:103E7000D9F808309D4227D2D9F80C3053F8257074
:103E8000D7F8048040460AF06CF9202814D943463C
:103E90003A68134968460AF083F80A2168466E4674
:103EA0000AF0B2F9864202D20E490AF052F93146BE
:103EB0002046FDF79DFF05E043463A680A49204643
:103EC000FDF796FF0135D3E74FF0FF320749204653
:103ED000FDF758FF11B0BDE8F08300BFFE350200CA
:103EE000123602009B3002002536020031360200F5
:103EF0002DE9F041054608460F461646FFF70BFD33
:103F0000002823DD0024AB689C4217D2EB683846BA
:103F100053F82480D8F80010FFF744FD60B1D8F8BA
:103F2000041029B10A780C4B002A08BF194600E09A
:103F300009494FF0FF3204E00134E4E707494FF04C
:103F4000FF323046BDE8F041FDF71CBF3146284640
:103F5000BDE8F041FFF780BF5D3602008136020008
:103F600038B50D4600242846FFF7D5FC844208DA10
:103F700021462846FFF767FE0378202B01D0013445
:103F8000F1E721462846FFF7B1FD2846BDE8384055
:103F90000149FFF714BE00BF4A4902002DE9F04174
:103FA0000C4690B04B49064620461546FFF727FEC3
:103FB000202249492046FFF77DFD08B9074615E054
:103FC00021463046444AFFF7CBFF2A462146304679
:103FD000FFF78EFF79E0F368202253F82780204610
:103FE000D8F80010FFF766FD30B90137B3689F427B
:103FF000F1D34FF000083BE0D8F8002021463046CE
:10400000FFF7AEFFD8F80830D8F80C202946204634
:104010009847002859D128464FF0FF322F49FDF725
:10402000B1FE4FF0FF32D8F804102846FDF7AAFE83
:104030004BE0F368202253F828700DEB020103A82F
:10404000FFF742FC396803A8FFF7B0FE002301AA7E
:104050002349204601930293FFF766FC01A80AF06A
:1040600080F8012808D803A8FFF743FC08F10108ED
:10407000B3689845DDD320E001A903A8FFF703FD4D
:104080000028F0D03A6821463046FFF769FFBB6848
:10409000FA6829462046984758B94FF0FF320F4931
:1040A0002846FDF76FFE4FF0FF3279682846FDF78E
:1040B00069FE03A8FFF71DFC07E028464FF0FF321A
:1040C0000849FDF75FFE002000E0012010B0BDE8C8
:1040D000F08100BFFC300200A6360200AB360200C1
:1040E000D03602008136020070B50646FDF7DEFAD2
:1040F000841941F10005FDF7D9FAA94208BFA04291
:10410000F9D370BD08B5FCF75BFE831E58425841D9
:1041100008BD10B50446FFF7F5FF20B12046BDE805
:104120001040FCF77DBC4FF47A706043BDE810404E
:10413000FFF7DABF38B50D46FFF782FD0446C0B27F
:1041400002F03CFF054A064B0649002818BF1346FB
:1041500022462846FDF74CFE012038BDE54102000D
:10416000D9360200E036020030B50C46054687B06D
:104170000A49FDF73DFEA1882388049121896288C0
:104180000391E18828460291E17A0191A17A009198
:104190000349FDF72DFE07B030BD00BFF736020022
:1041A0002D3702002DE9F0418CB003AB00260093BF
:1041B0000D46904602AB0222384902960396FFF75D
:1041C000C1FBB04266DD029808F069F8C7B20398F7
:1041D00018B109F0C6FFC4B200E00446002104A8EB
:1041E00003F03CFB30B14FF0FF322D492846FDF77C
:1041F000C9FDF3E7022318F100010093039A234657
:1042000018BF0121384603F01DF8064638B94FF0B3
:10421000FF3224492846FDF7B5FD01263AE0B8F102
:10422000000F37D04FF47A7104A803F01FFB60B37E
:104230009DF81030BB4228D19DF817300C2B04D1CB
:104240003A4606A92846FFF78FFFBCB9164928460B
:10425000FDF7CEFD9DF817309C420ADA04AB191920
:104260002B684FF0FF325B68097A28469847013483
:10427000F0E70E492846FDF7BBFD0BE04FF0FF329B
:104280000B492846FDF77EFD04E0029A09492846BD
:10429000FDF7AEFD30460CB0BDE8F0814A490200A2
:1042A0004B3702006D370200953702005C46020072
:1042B000A9370200C63702001FB501A80C4603F05B
:1042C0009FF902F087FE01A902462046FFF74CFF46
:1042D000012004B010BDFFFF30B58BB00AAA4FF427
:1042E0007A730C4642F8243D1749FFF71DFB002561
:1042F000019902A803F0B2FAD8B19DF80820134939
:104300002046FDF775FD00259DF80F309D420ADA25
:1043100002AB591923684FF0FF325B68097A2046D7
:1043200098470135F0E70A492046FDF761FD012570
:10433000DEE72DB94FF0FF3206492046FDF722FD9A
:1043400001200BB030BD00BFD83C0200EC370200AA
:10435000863C02000338020037B50C4602F0B4FF79
:10436000054616492046FDF743FD15492A462046D5
:10437000FDF73EFD11492046FDF73AFDD5B1114943
:104380002046FDF735FD0D492046FDF731FD00259E
:10439000E8B202F083FF013540B1817843780278BA
:1043A000009120460849FDF723FDF1E70349204627
:1043B000FDF71EFD012003B030BD00BF1438020020
:1043C0002F38020049380200643802002DE9F34713
:1043D0003C4C074626688946002E62D1242006F010
:1043E0000BFD0423054680E848008660C660202156
:1043F000304609F01FFCAE68E8604FEA8608072ED9
:104400000ED8102006F0F8FC82461022002108F099
:10441000A8F9EB68013643F808A008F10408EEE7B4
:10442000002608236B604FF00108274B274A2849D4
:104430002846009685F820802560FFF7CFFC254BA5
:10444000254A264920680096FFF7C8FC244B254AD8
:10445000254920680096FFF7C1FC244B244A2549D2
:1044600020680096FFF7BAFC234B244A24492068B1
:104470000096FFF7B3FC234B234A24492068CDF86C
:104480000080FFF7ABFC224B224A204920680096AF
:10449000FFF7A4FC0096204B204A21492068FFF733
:1044A0009DFC20493846FFF7C7FB18B11E49384626
:1044B000FFF77CFC4A463946206802B0BDE8F04769
:1044C000FFF76CBDCCC307207F380200B93802006B
:1044D00079470100C0380200143902004D4501003F
:1044E0001D390200A0500200D942010040390200EB
:1044F0003C470200354101006A390200863902005A
:10450000594301008D390200F4390200A541010030
:10451000CE390200F3390200F8390200133A0200E2
:10452000B9420100873C0200A636020038B5064CAD
:10453000236833B9582006F05FFC0546FEF72CFCD3
:104540002560206838BD00BFC8C307202DE9F04FA3
:104550000446ADF2DC5D802288460DA8002108F0FB
:1045600000F9802200212DA808F0FBF806AE0023F8
:1045700033600DAA00962DAB75492046FFF7D4F99C
:10458000032801D00020DFE001220DA9EDA804F0EE
:1045900061FC05460028F5D1FFF7C8FF336880228B
:1045A00080F853304DA9044608A88DF81750079598
:1045B000FFF78AF92DAB009333680DAA6549404691
:1045C000FDF716FCA94607AE33464FF400726DA9FD
:1045D000EDA804F0D9FC002840F0AF803368002B30
:1045E00000F0AB806F1C32685B492046FDF700FC91
:1045F000236820469B6898477D1E0DF5DA7B4FF0B7
:10460000000A6DAB3268C3EB0B039A4223680CD9E6
:10461000CDF80CB05B684FF0FF321BF8011B204651
:104620009847039B1B789A44EBE79B682046984782
:1046300008A8FFF703FB834608A8FFF76FF94FF4BC
:104640007A73024659462046FDF7AAFB2022012133
:104650000DEB0200FFF79EFA08A8FFF7F1FA82457A
:1046600020D008A8FFF7ECFA524603463B494046E3
:10467000FDF7BEFB3A492046FDF7BAFB236820460A
:104680009B68984723684FF47A721B680DF11701F5
:10469000204698470028F5D1022F07F101034CD896
:1046A0001F46A0E733682DAA2E49009320464B46AB
:1046B000FDF79EFB236820469B68984708A8FFF7F4
:1046C000BDFA824608A8FFF729F9514602464FF481
:1046D0007A732046FDF764FB234908A8FFF7AAF97F
:1046E000D0B908A8FFF7AAFA204902464046FDF7CC
:1046F0007FFB1B492046FDF77BFB236820469B6818
:10470000984723684FF47A721B680DF11701204611
:1047100098470028F5D1BFE7154908A8FFF746FBE1
:104720003368144999444A46F09B4046FDF760FBC4
:10473000002D3FF448AFBD1E45E7EDA804F0F3FDA2
:1047400008A8FFF7D6F801200DF2DC5DBDE8F08F78
:10475000193A0200283A02003F3A0200513A020098
:10476000863C0200783A02008E3A0200913A02003A
:10477000873C0200C93A02002DE9F047074686B09F
:1047800006AA002442F80C4D0E463D49FFF7CCF82E
:10479000202201213846FFF7FDF9039B002B65D04D
:1047A0003846FFF7B8F8002860D0FFF7BFFE05468F
:1047B0000DF1180808F80D4D2B6805221B684146BD
:1047C0002846984704460028F6D1039B384685F8CA
:1047D0005330FFF733FA274601464FF0FF322846A1
:1047E000FDF7D0FA2B6828469B689847254B0DF1BA
:1047F0001809186849F8044D04902B684FF47A7230
:104800001B68414628469847D0B103220DF1150197
:10481000484607F08BFF9DF80BA0042204A94846E8
:104820008DF817A007F068FF50B1336801225B686C
:1048300051463046013798470028DED10134DCE785
:104840001822B7FBF2F302FB137202B101333A46AE
:104850000D493046FDF7CCFA74B16123009322462E
:104860000A4B0B493046FDF7C3FA05E04FF0FF3223
:1048700008493046FDF786FA012006B0BDE8F0870A
:10488000D83C0200D5360200D53A0200FC3A0200BC
:10489000353B0200EE3B020070B5ADF50A7D0546E2
:1048A0000C46FFF738F80B2802DD0C221F4936E0D2
:1048B0002846FFF7C3F90122014601A804F0CAFA0D
:1048C000064638BB01A804F02EFD2846FFF7B6F9CE
:1048D00017490246049B2046FDF78AFA23682046C2
:1048E0009B6898470A20FCF79BF8FBF7F9FC2846E1
:1048F000FFF7A4F902460F4B0068516803C39068A4
:104900000D4A186043F80C2C4FF08043AA221A720B
:104910001E7007E02846FFF791F902460749204636
:10492000FDF766FA01200DF50A7D70BD1A3C020004
:10493000413C0200484002400DD0ADDE883C020000
:104940002DE9F041404CA4B023680646DB070D4634
:104950000CD4204606F010FE40B14FF4806007F002
:10496000ADFE3A4B1860204606F012FE384930463C
:10497000FFF789F80746044600B38022002104A807
:1049800007F0EFFE00230293039303AB009304AA06
:1049900002AB30493046FEF7C7FF2C49029B039A11
:1049A000096804A813B903F097F901E003F0B6F918
:1049B000294B2A49002818BF194638E028493046B3
:1049C000FFF761F8074600283AD004AB304603AA47
:1049D0002449039404948DF80840FEF7A5FF039E34
:1049E000049B3344B3F5806F02DCDFF860800CE099
:1049F0004FF480621C4920E0D8F800309DF8082070
:104A00009A559DF8083001361C44039B049AF31A0A
:104A1000934210DAB6F5806F0DDA2B684FF4FA6224
:104A20001B6802A9284698470028E5D10F49284667
:104A3000FDF7DEF904E022460D492846FDF7D8F9D6
:104A4000384624B0BDE8F081D4C30720D0C3072086
:104A5000B33C0200BA3C0200A13C02009D3C0200B3
:104A6000CA3C0200D13C0200DB3C0200FF3C0200D9
:104A70000F3D020070B50F4D0F4E2C6814F001046D
:104A800015D1284606F078FD88B14FF40E7006F077
:104A9000B3F9302380F835323A2380F8344280F875
:104AA000363280F837423060284606F071FD3068B3
:104AB00070BD00BFE8C30720ECC3072070B50F4DE1
:104AC0000F4E2B6813F0010416D1284606F054FD52
:104AD00090B14FF40E7006F08FF9012380F8343254
:104AE000312380F835323A2380F8363280F8374265
:104AF0003060284606F04CFD306870BDE0C30720EA
:104B0000E4C307202DE9F04FADF50B7D0F46FFF70D
:104B100097F8041E04DDFCF709FA2046FBF780FF36
:104B20000DF114094C462A4D4FF0640B0FCD0FC404
:104B30002B6804AA2360102100240AA80494FBF720
:104B400097FF244A824624493846FDF751F9264604
:104B50000AAD4FF00008D0451CD06B69A34215D1B7
:104B6000AA69049B16441BB1B3FBFBF3B2FBF3F33E
:104B7000297B03920293AB8B00949B00019359F81D
:104B800021306A6815493846FDF732F908F1010805
:104B90002035E0E701340A2CDAD1049B64229E1B05
:104BA000B3FBF2F30E49B6FBF3F30E4A0096384618
:104BB000FDF71EF9FBF706FE102804D910220A495A
:104BC0003846FDF715F901200DF50B7DBDE8F08F96
:104BD0001C3D02003B3D0200403D0200673D0200DB
:104BE0008F3D0200843D0200AE3D020010B50C4630
:104BF000ADF5007D6846FCF76FFD20464FF0FF32B3
:104C00006946FDF7BFF801200DF5007D10BDFFFFDF
:104C100030B50C4691B02C490546FEF71DFF002823
:104C200047D00CAB04930BAB03930AAB029309ABD5
:104C3000019308AB009306AA07AB24492846FEF768
:104C400073FE072801D000203BE09DF83930069A1A
:104C50000DA862F303038DF83930079A9DF83830B8
:104C600062F304038DF83830089ABDF83A3062F3E5
:104C70000B03ADF83A30099A9DF8363062F304031D
:104C80008DF836300A9A9DF8353062F305038DF8B9
:104C900035300B9A9DF8343062F305038DF83430CB
:104CA0000C9A9DF8373062F302038DF83730FDF728
:104CB000A7FEFDF741FF064902462046FDF798F89A
:104CC000012011B030BD00BFE6500200D83D020007
:104CD0002E360200F7B50D464E490446FEF7ACFFEE
:104CE000064640B1FEF738FA4FF0FF324A492846EF
:104CF000FDF748F88BE049492046FEF79DFF60B379
:104D0000FEF74EFA464902462846FDF771F8FEF7CF
:104D100053FA444902462846FDF76AF8FEF746FA78
:104D2000414902462846FDF763F83046FEF72EFA61
:104D300004460120FEF72AFA06460220FEF726FA6C
:104D400007460320FEF722FA0097019033462246D9
:104D500036492846FDF74CF859E035492046FEF71C
:104D60007BFE50B1202201212046FEF713FF204692
:104D7000FEF764FFFEF73AFB49E02E492046FEF7B6
:104D80006BFE064620B92C492046FEF765FE60B34F
:104D90002A492046FEF74EFE60B929492046FEF713
:104DA00049FE28B920462749FEF744FE044602E0A2
:104DB000032400E0022431462046FEF76FFA224A1F
:104DC000224B002E18BF1A463CB1012C07D01C49BB
:104DD0001A4B022C18BF0B4602E01D4B00E0194B8A
:104DE0001C492846FDF704F811E02046FEF726FF8F
:104DF000194A1A490090FB230120FEF75DFA20466C
:104E0000FEF71CFF164902462846FCF7F1FF012079
:104E100003B0F0BD023E0200083E0200213E020047
:104E2000283E02003D3E0200523E0200713E02005A
:104E3000A13E0200A53E0200AD3E0200C2330200C8
:104E4000C73302000B500200F93D0200F13D0200A1
:104E5000BC330200B63E0200303D0200CF3E0200ED
:104E6000FF3E020030B589B004AB002400930D462C
:104E700003AB0222184903940494FEF763FD022851
:104E800027D107AB009305AA06AB049903980594B4
:104E90000694079402F084FE024638B1049B0F4941
:104EA00000932846039BFCF7A3FF10E0059A069B9E
:104EB000002A079908BF0122002B08BF0123B1FB7C
:104EC000F3F3B1FBF2F228460549FCF791FF01200C
:104ED00000E0204609B030BD4A4902000D3F020003
:104EE0002C3F02002DE9F0470E46ADF5856D39499E
:104EF0000546FEF73BFE384907462846FEF75FFEAB
:104F000035492846FEF77BFE2846FEF797FE01222C
:104F1000014681A803F09EFF044640B12846FEF7F3
:104F20008DFE2E4902463046FCF762FF4CE00DF143
:104F3000040A01464FF40072504607F012FC009438
:104F4000FCF7B4FB804689466B464FF4007251462D
:104F500081A804F019F808B9009B23BB81A804F0CC
:104F6000E2F9CFB1FCF7A2FB4FF47A72002306F00E
:104F7000FFFF002305464FF47A724046494606F08B
:104F8000F7FF281A14BF03460123B4FBF3F32246AC
:104F900013493046FCF72CFF4FF0FF3211493046E1
:104FA000FCF7F0FE10E01C44002FCDD13D46009BE5
:104FB0009D42C9D233681AF805105B684FF0FF3282
:104FC000304698470135F2E701200DF5856DBDE8C3
:104FD000F08700BF5A3F02004A490200633F0200C7
:104FE000773F0200873C02002DE9F0470023BEB066
:104FF0000C46534905460C93FEF71EFE20B9284681
:10500000FEF71CFE064600E04E4E314615A804F0A1
:1050100043FA054630B1034632464B492046FCF779
:10502000E7FE89E0324649492046FCF7E1FE2F467B
:105030000DF1780880230DA915A8CDF84C801493A4
:1050400004F06EFA002861D19DF83D30002B5DD050
:105050009DF83C100DF13D00CA065BBF0D9B0C9AFC
:1050600044229B185BBF0C932D220135013711F0B0
:10507000010F14BF52232D23BDF83AA011F0020FE7
:1050800009900D9814BF4FF0480E4FF02D0E11F0FF
:10509000040F14BF4FF0530C4FF02D0C089011F07B
:1050A000200FCAF34510BDF8381007904FEAEA20E8
:1050B000069001F01F000590C1F343104FEA6121F3
:1050C00014BF4FF041094FF02D0901F2BC71CDF82A
:1050D00004C0CDF800E004900391CDF808901C497D
:1050E0002046FCF785FE4FF0FF321A492046FCF7B8
:1050F00035FE41464FF0FF322046FCF72FFE4FF0C1
:10510000FF320F492046FCF73DFE91E73A4612492F
:1051100000950C9B2046FCF76BFE0BAA0CA93046B1
:1051200004F02DFA40B90B9B0C499A780C9B204651
:105130005A435208FCF75CFE01203EB0BDE8F08700
:10514000873C0200923F0200953F0200B93F0200F7
:10515000D43F020001400200054002002F4002003F
:1051600070B50C460646FEF769FD05463046FEF76B
:1051700065FD04F0C6FA064A064B0749002808BF39
:1051800013462A462046FCF733FE012070BD00BFBF
:10519000E5410200EF4102004340020070B50C46B9
:1051A0000646FEF74BFD05463046FEF747FD04F088
:1051B0004BFA064A064B0749002808BF13462A4601
:1051C0002046FCF715FE012070BD00BFE54102003E
:1051D000EF4102005F4002007FB503AB0024009363
:1051E0000E4602AB02220F4902940394FEF7AAFB7B
:1051F000022814D1029C039D2046294604F02AFB74
:10520000094B0A49224600280CBF084618462B467F
:10521000009007493046FCF7EBFD012000E02046F6
:1052200004B070BD4A490200EF410200E5410200AE
:105230007140020030B5ADF50D7D0C460546FEF718
:10524000FDFC0A22014603A803F004FE40B12846F3
:10525000FEF7F4FC1F4902462046FCF7C9FD34E086
:105260008DF8070002901C4942F210737E222046FE
:10527000FCF7BEFD19492046FCF7BAFD236842F24F
:1052800010721B680DF107012046984718B19DF870
:1052900007307E2B03D103A804F045F815E002ABDC
:1052A00001220DF1070103A803F026FF58B9029B64
:1052B000012B08D123684FF0FF325B689DF807107F
:1052C00020469847DAE70649D5E701200DF50D7D20
:1052D00030BD00BF89400200B0400200E84002003B
:1052E000084102002DE9F04FADF5417D002304ACEB
:1052F000236003930D46009403AB02224149FEF75D
:1053000021FB022806D04FF0FF323F492846FCF728
:1053100039FD72E0216817A804F0BEF810B12268C8
:105320003A4906E0039917A804F0B6F828B1039AA1
:1053300037492846FCF75CFD5FE04FF480720DEBC7
:10534000020105A8FEF7C0FA4FF4807280A90AA8EE
:10535000FEF7BAFA20AE80270FA917A81596169760
:1053600004F0DEF8002842D19DF84530002B3ED0F5
:105370009DF8443003F0100303F0FF0A002BEBD13B
:105380000DF14503039A234905A8FEF7A1FC0DF191
:10539000450322681F490AA8FEF79AFC05A8FEF7F4
:1053A0004DFC07460AA8FEF749FC804605A8DDF833
:1053B0003C90FEF743FC83460AA8FEF73FFC5346A9
:1053C00052460146CDF800A0584602F0E9FB124AC9
:1053D000124BCDF8009000280CBF1846104610491B
:1053E000019043463A462846FCF702FDB3E70AA877
:1053F000FEF77FFA05A8FEF77CFA01200DF5417D46
:10540000BDE8F08F4A4902002F41020074410200BA
:1054100099410200B9410200EF410200E54102005A
:10542000BF410200F8B50D4624490646FEF704FCCC
:105430000446074618B1FFF741FB002208E0204967
:105440003046FEF7F9FB044660B1FFF713FB3A461E
:10545000114600F2352004F08DFA4FF0FF32194B5F
:10546000194922E019493046FEF7E6FB044658B1D7
:10547000FFF724FB012200F2352103F0ADFC4FF0D1
:10548000FF32134B134910E013493046FEF7D4FBAB
:10549000044680B1FFF7EEFA012200F2352103F055
:1054A0009BFC0E4B0E494FF0FF32002818BF1946E7
:1054B0002846FCF767FC2046F8BD00BF46420200C4
:1054C00050420200E8410200DE4102005D4202005B
:1054D00005420200F5410200664202002A42020033
:1054E0001C42020008B508464FF0FF320849FCF79D
:1054F00049FCFDF731FE4FF4FA60FBF791FA4FF0EB
:105500008043AA221A7200221A70012008BD00BF2F
:105510007242020010B501200C46FEF735F940B189
:1055200000231A461946FBF771FE4FF0FF3205497A
:1055300002E005494FF0FF322046FCF723FC012032
:1055400010BD00BF834202009942020038B5064CEC
:10555000236833B91C2005F04FFC0546FDF714F90C
:105560002560206838BD00BF54C307202DE9F04FE7
:105570000D46C7B055498146FEF785FA5449824623
:105580004846FEF780FA534983464846FEF77BFAC1
:1055900000270DF1100805AE044602970397C8F8DE
:1055A00000703760BAF1000F45D0009603AB02AA35
:1055B00049494846FEF7B8F9012807DC28464FF06C
:1055C000FF324649FCF7DEFB38467CE00DF1180857
:1055D0004FF4807422463946404607F0C2F83368DB
:1055E00013B90123336003E0B3F5807F88BF3460D3
:1055F000FFF7ACFF33689DF80C209DF8081000936E
:105600004346FCF7BBFC364A364B3749002818BFE7
:105610001346029A2846FCF7EBFB002433689C42B1
:105620004ED2039A18F80430224430492846FCF739
:10563000DFFB0134F2E7BBF1000F2CD0CDF8008086
:1056400003AB02AA2A494846FEF76EF9032807D0A1
:1056500028464FF0FF322749FCF794FB504632E0D2
:10566000FFF774FF98F800309DF80C209DF80810A3
:10567000FCF799FC48B1039B1F490093D8F8002020
:10568000029B2846FCF7B4FB1AE0029A1B49284605
:10569000FCF7AEFB14E0A8B102230293029BFE2BA1
:1056A00010DCFFF753FF9DF80810FCF787FC20B1D2
:1056B000029A13492846FCF79BFB029B0233ECE756
:1056C000012000E0204647B0BDE8F08F904A02007C
:1056D000D2420200D8420200E1420200F04202003F
:1056E000E5410200EF410200114302003543020090
:1056F00045430200554302007C43020096430200EA
:10570000B343020038B5084C23685BB90C2005F0A0
:1057100073FB0546FFF71AFF90232B7100232860C7
:10572000AB602560206838BDD8C3072010B5FFF7EF
:10573000E9FF0446074808F013FA204602F01EFA73
:1057400006F0AEF802460B46034808F097F9012030
:1057500010BD00BFD9430200E64302002DE9F04F1F
:10576000554C91B023680E4633B92C2005F044FB0C
:105770000546FDF759F825602768FFF77BF90024F7
:105780000CAA0DA900F235200D9403F0F8FE48B9DB
:105790000C9A0D9C95699378023D5C435D436408C7
:1057A0006D0800E02546FFF7ADFF02F0E7F98146FE
:1057B00006F098FB0A9006F0F1F90146484606F01B
:1057C00037F93E4906F03EFA06F08CFB81460DA8FB
:1057D000FCF70EF805F0A6F968B3FDF779F805F0C7
:1057E0008BF94FF0000A0346D346D0469A450B93F7
:1057F0000BD0504605F0E4F9804538BFD3460B9BEB
:1058000038BF80460AF1010AF0E7FDF779F8642312
:1058100003FB08F32A4ACDF80880B3FBF2F3C3F187
:1058200064030093CDF804B02B4622462549304648
:10583000FCF7DEFA05E02B46224623493046FCF70A
:10584000D7FA224C23681BB9012005F0D5FA206055
:10585000206802F057F90446FDF76EF9FB8C0A9AAE
:105860000993BB8C1A4908939DF83430019003F0DA
:105870003F0307939DF83530009403F03F030693F0
:105880009DF83630304603F01F030593BDF83A30DB
:10589000C3F30B0304939DF8383003F01F03039305
:1058A0009DF8393003F00F0302934B46FCF7A0FA42
:1058B000012011B0BDE8F08F58C30720000020413F
:1058C000A08601000044020034440200DCC307202B
:1058D00042440200014808F043B900BFBF4402003F
:1058E00038B504460D46FCF79FF9074BB0FBF3F0C3
:1058F0000223B0FBF3F2AA4204D9B3F5807F01D0B2
:105900000233F6E7236138BD40420F007FB500F255
:1059100035260C460122314603F05EFA054648BBA7
:10592000039002AA03A9304603F029FE00BB0298A7
:10593000039A837802FB03F182691348023A5A43BF
:105940005208B2F5004F38BF0120104B4FEA510109
:1059500024BF03464FF48060B1FBF0F1B2FBF0F2DC
:105960000091019321460A4808F088F8012008E0D8
:10597000084B00E0084B2A462146084808F07EF80C
:10598000002004B070BD00BFFD440200FA440200D4
:1059900007450200034502000045020035450200AC
:1059A00038B5074C23684BB9082005F025FA0546A1
:1059B000FFF7CCFD402328602B712560206838BD9F
:1059C000F8C3072038B5054C256825B9012005F036
:1059D00013FA05702060206838BD00BFF4C30720AB
:1059E00010B5044C23681BB9012005F005FA2060AE
:1059F000206810BDDCC3072010B5044C23681BB918
:105A0000012005F0F9F92060206810BDF0C30720DF
:105A1000AD49AE4A4023F0B58B614FF000739361FE
:105A20004FF480338B61AA4BADF5057D18680725CF
:105A300020F0F00018601868022440F05000186050
:105A4000186820F440501860086840F04000086072
:105A5000186820F47C201860186840F4282018602A
:105A6000186820F470001860186840F4200018606E
:105A7000186820F040401860186840F00040186036
:105A8000586820F03C005860586840F02800586082
:105A9000586820F003005860086840F480300860BF
:105AA000586820F440505860086820F4800008606E
:105AB000D96821F44031D960116841F080711160DA
:105AC000596821F440215960596841F48021596096
:105AD0009868804901409960116841F4897141F0EA
