:020000021000EC
:10000000E03F082095010100FB000100E100010034
:10001000090101001901010029010100000000008F
:10002000000000000000000000000000A10201002C
:1000300039010100000000003103010059010100F5
:100040009515010095150100951501009515010004
:1000500095150100951501009515010095150100F4
:1000600095150100951501009515010095150100E4
:1000700095150100951501009515010095150100D4
:1000800095150100951501009515010095150100C4
:1000900095150100951501009515010095150100B4
:1000A00095150100951501009515010095150100A4
:1000B0009515010095150100951501009515010094
:1000C000951501009515010095150100D85F0200F6
:1000D00000C00720CC010000D0C10720940400001C
:1000E00004207146084203D0EFF3098001F070BA92
:1000F000EFF3088001F06CBA704708B5014802F0D0
:100100001DFFFEE72B30020008B5024802F016FF83
:10011000FEE700BF3630020008B5024802F00EFFCD
:10012000FEE700BF4130020008B5024802F006FFBA
:10013000FEE700BF4C30020008B5024802F0FEFEA8
:10014000FEE700BF5930020008B5024802F0F6FE93
:10015000FEE700BF6730020008B500F007FF00F0BF
:1001600009F9BDE8084000F015BF0B4610B5401A6C
:100170005C1AA24203D9C45843F8044BF8E710BDF7
:10018000034610B500221C1AA14202D943F8042BE1
:10019000F9E710BD164801F081FD154801F081FD19
:1001A000144C154DAC4201D3144D07E094E8030004
:1001B0000C3454F8042CFFF7D8FFF3E7AC4206D216
:1001C00054F8080B54F8041CFFF7DAFFF6E70CF0BC
:1001D000DDF901F0FFFA05F03DFC06F0C1FA4FF43D
:1001E000164001F013FC064802F0A8FEFEE700BF2F
:1001F000E03F0820CC000100D8000100E000010031
:100200007B30020030BF704710B50C46094802F041
:1002100095FE204602F092FE074802F08FFE074846
:1002200003F084FF4FF08043AA221A7200221A7052
:1002300010BD00BF502F0200792F0200C0C62D0054
:1002400008B5064802F07AFE054803F06FFF4FF04C
:100250008043AA221A7200221A7008BDA52F02003C
:10026000C0C62D0006480068006880F3088862B6A2
:1002700061B6BFF34F8FBFF36F8F00DF00BF000089
:1002800008ED00E04FF0807300E90A00034B40F8EE
:10029000202C40F80C3C4038704700BFF1020100B0
:1002A000074B19680868B0E8F00F80F30988BFF3BE
:1002B0006F8F4FF0000080F311884EF00D0E7047E5
:1002C000E8C207207047FFFF044B4FF080521A60CE
:1002D000BFF34F8FBFF36F8F704700BF04ED00E097
:1002E000EFF311804FF0100181F311887047002067
:1002F00008B5FFF7F5FFFEE708B5FFF7F1FF044A81
:10030000136801331360BFF34F8FBFF36F8F08BDC6
:10031000D0C1072080F311887047FFFF034B186896
:100320000138186008B9FFF7F5BF7047D0C1072042
:10033000EFF30980BFF36F8F0D4B1A6820E9F00FC0
:1003400010602DE908404FF0100080F3118800F094
:10035000D7FB4FF0000080F31188BDE80840196812
:100360000868B0E8F00F80F30988BFF36F8F70471B
:10037000E8C2072008B5FFF7B3FF00F029FA18B16B
:10038000044B4FF080521A600020BDE80840FFF790
:10039000C1BF00BF04ED00E04BF67F32024B1A6094
:1003A000072243F8042C704714E000E008B5094B1D
:1003B0001A6842F478021A601A6842F078421A60A9
:1003C000FFF7EAFF044B00221A60FFF74BFFFFF72D
:1003D00087FFFEE720ED00E0D0C1072008B501F05F
:1003E0004DF9024BC3E9000108BD00BFD8C1072089
:1003F00008B501F043F9024B1B68C01A08BD00BFE5
:10040000D8C1072008B501F039F9024BC3E9000152
:1004100008BD00BFD8C10720436800F108025B682F
:1004200030B59342436008BF53684FF0000508BFE2
:1004300043604368DC685B689A4208BFC368D96858
:100440008C42CD64F7D1436030BDFFFF08B5044C4A
:100450002368012B01D9FFF737FFFFF7D3FEF7E73A
:100460001CC20720064A13681968064B11B94FF0E1
:10047000FF3203E01268D268D26852681A6070478F
:10048000E8C1072000C007200E4B10B51A680446CB
:1004900050600D4A1268904207D2BDE810400B4AE6
:1004A00010681968043101F04CB8094A10681968DD
:1004B000043101F046F8074B1A68944238BF1C60BB
:1004C00010BD00BFE8C2072000C3072004C30720F7
:1004D000E8C1072000C007202DE9F0430C68002C7C
:1004E00047D04B6801F108075C684FF00208BC4236
:1004F00008BF7B684C6008BF4B604B68D3F80CC0EA
:1005000000F11C0300204C686468A7424C6004BFE3
:10051000CC684C604C68032AE46804F1340543F865
:10052000185CE56B43F81C4C43F8145CE56A03F86F
:10053000102C43F80C5C03D1A56A0DB103F8108CA4
:10054000656C43F8085CE56CD4F830E043F8045C73
:100550007646CEEB060516F8019BB9F1A50FF8D04B
:10056000AD08A44523F8205B00F10100CBD1BDE824
:10057000F0832046BDE8F0832DE9F84F81465020F6
:100580000E4615469A460A9FDDF830B000F0ACFDE5
:100590000446002800F0A480BBF1000F03D1A8009E
:1005A00000F0A2FD00E05846206318B9204600F094
:1005B000AAFD95E0AD002A46A5210CF058F9236B61
:1005C000043D1D4425F00705731E04F13302073670
:1005D00013F8011F02F8011F197809B19E42F7D1E3
:1005E000BB46092F28BF4FF0090B4FF00008261D0E
:1005F000304684F83B80C4F82CB0C4F844B0C4F84A
:10060000488000F08FFF04F1180000F08BFFCBF161
:100610000A03A36124616462C4F84C8052464946CF
:100620002846FFF72FFE0B9B206003B11C60FFF7ED
:1006300063FE2D4A2D4D1368DFF8D090013313600F
:100640002B6823BB2C601268012A28D1984609EB3D
:10065000080008F1140800F05AFFB8F1C80FF6D1ED
:10066000DFF8ACA0DFF8AC80504600F050FF404609
:1006700000F04DFF1E4800F04AFF1E4800F047FF03
:100680001D4BC3F800A01D4BC3F8008007E01C4BB6
:100690001B6823B92B68DB6A9F4228BF2C60194A6C
:1006A0001949136801331360E26AE3630B6801249C
:1006B00004FA02F0034314200B6000FB0290314661
:1006C00000F033FFFFF72AFE0D4B1B682BB12B68A0
:1006D000DB6A9F4201D9FFF7F7FD2046BDE8F88F9E
:1006E0004FF0FF30BDE8F88F0CC30720E8C20720A9
:1006F000ECC2072014C30720E8C1072004C3072069
:10070000ECC1072008C3072028C307201CC207200C
:10071000F0C1072004C2072030B50F4B85B000247C
:100720000193039402940094234680220B490C48C1
:10073000FFF722FF012805460CD1FFF7D1FD094B39
:100740001D60094B1C60FFF749FE05B0BDE8304055
:10075000FFF72CBE05B030BD10C30720EF2F0200FD
:100760004D040100ECC1072000C3072008B5FFF7C6
:10077000B7FD034B00221A60BDE80840FFF7A2BD99
:10078000ECC10720024A136801331360704700BFB1
:10079000E4C2072010B5FFF7AFFD034B1C68FFF75D
:1007A000BDFD204610BD00BF00C3072010B5FFF7F8
:1007B00097FD034B1C68FFF7ADFD204610BD00BF41
:1007C00000C30720014B1868704700BF0CC3072007
:1007D0003A4B2DE9F74F1B68002B30D1384B1A6884
:1007E00001321A601D685DB9364A374B11681868C6
:1007F0001060364A1960136801331360FFF732FE48
:10080000334C4FF0000B236801949D42314E324F20
:100810000BD3DFF8B080DFF8CC90D8F80020126856
:10082000A2B9019B4FF0FF321A603A68D16A1422D4
:100830004A43B258022A28BF4FF0010B34E0274A3E
:100840004FF0000B1368013313602DE0D8F800203F
:10085000D268D46861688D4202D2019B1960E4E7D6
:1008600004F1040A504600F084FEA16A19B104F1B3
:10087000180000F07EFEE06AD9F80010012303FAA8
:1008800000FE4EEA01014FF0140EC9F800100EFBF5
:100890000060514600F049FE3868E16AC26A914240
:1008A00028BF4FF0010BB8E70D4A1268002A18BFA5
:1008B0004FF0010B584603B0BDE8F08FE4C20720AB
:1008C00000C30720E8C1072004C30720E4C10720B4
:1008D00000C007201CC20720E8C2072018C207205A
:1008E0002CC3072028C307202DE9F843FFF704FD98
:1008F000274B1A68013A1A601B680BB1002441E0CB
:10090000244B1B68002BF9D0234D244EDFF89C802C
:100910002B6803B3EB680127DC6804F1040904F1D8
:10092000180000F026FE484600F023FEE26A336815
:1009300007FA02F114200B4300FB028049463360A2
:1009400000F0F3FD164BE26A1B68DB6A9A42DFD3C4
:10095000144B1F60DAE7144C236833B9114B1C6841
:10096000012CCBD1FFF7B0FC0CE00E4D0126236823
:10097000002BF3D0FFF72CFF00B12E602368013B62
:100980002360F4E7FFF7CAFC2046BDE8F88300BF08
:10099000E4C207200CC30720ECC2072028C30720AD
:1009A000E8C207202CC3072018C207201CC207205A
:1009B00038B5FFF7E7FE174B02681B6854189342DF
:1009C00002D2A24207D901E0A24206D8A3422CBF1C
:1009D0000023012302E0002300E0012304608BB127
:1009E0000D4D2868043000F0C4FD40B92B680B4958
:1009F000D86A0A680123834022EA03030B60204679
:100A0000FFF742FDFFF770FF18B9BDE83840FFF768
:100A10005BBC38BD00C30720E8C2072028C30720FD
:100A200038B518B9BDE83840FFF74EBCFFF7AAFE4D
:100A30000C4B0D4D1B68C4182868043000F099FD5C
:100A400040B92B680949D86A0A680123834022EA21
:100A500003030B602046FFF717FDFFF745FF002853
:100A6000E0D038BD00C30720E8C2072028C3072014
:100A70002DE9F04106461746FFF784FE1B4B1B6825
:100A80008B422CD800252C46DFF8708005F1B4018C
:100A900006EB441001224144FFF71EFD143D15F101
:100AA000C80F0444F2D1124B0222196806EB44101D
:100AB000FFF712FD0F4B04441968022206EB4410A5
:100AC000FFF70AFD044406EB441003220A49FFF72E
:100AD00003FD044427B1FFF78BFC386000E00024DD
:100AE000FFF702FF2046BDE8F08100BF0CC30720DE
:100AF000E8C1072004C3072014C307201CC2072035
:100B0000274B70B51A68274B12B101221A6070BDCD
:100B10001A60FFF76DFC244A244C1568A84204D9DA
:100B20002168CB6C5B1B0344CB6421681060226896
:100B30000968126B1D4B914204D81868196834314A
:100B4000FFF762FB236814221949186B174D0BF04D
:100B500059FE20B1286829683431FFF755FB154B41
:100B60001B68B3FA83F3DBB2C3F11F03142000FB4D
:100B700003F211498D186E68083276680A4496426D
:100B800000FB031308BF72686E6008BF6A605B6891
:100B9000DB68236023685A6B084B5A6470BD00BF42
:100BA000E4C207202CC30720E0C10720E8C20720C9
:100BB000DB2F020028C307201CC207200040024090
:100BC000F8B50446214DFFF797FB04B92C68261DA4
:100BD000304600F0CEFC60B9E06A142242431C4B60
:100BE0009B5833B91B4901230A68834022EA030357
:100BF0000B60A36A1BB104F1180000F0BAFC164F99
:100C00003146384600F091FCFFF788FB2B689C4288
:100C1000124B1B6810D11BB1BDE8F840FFF754BB65
:100C20000F4A39681268914202D1084A1360F8BD30
:100C3000BDE8F840FFF764BF3BB1FFF75DFBFFF78E
:100C400011FCBDE8F840FFF769BBF8BDE8C207201A
:100C50001CC2072028C3072014C30720ECC10720AB
:100C60000CC3072038B5124C0D462168183100F02E
:100C700068FC2068043000F07CFC40B923680D4912
:100C8000D86A0A680123834022EA03030B606B1CC5
:100C900006D1216808480431BDE8384000F045BC61
:100CA000064B18682844BDE83840FFF7EDBB00BF8D
:100CB000E8C2072028C3072014C3072000C3072069
:100CC000C36870B5DC6804F11805284600F051FCD3
:100CD000114B1B6883B9261D304600F04AFC0F49B2
:100CE000E56A0A680123AB4013430B600C4B1420E8
:100CF000314600FB053001E029460A4800F015FCAA
:100D0000094BE26A1B68DB6A9A4283BF074B0120EA
:100D10001860002070BD00BFE4C2072028C3072070
:100D20001CC20720ECC20720E8C207202CC3072002
:100D3000034B1B680360034B1B684360704700BF95
:100D4000E4C1072000C3072038B50D460446FFF76D
:100D5000D3FA0E4B18682B685A1C10D00C4A216825
:100D600012689142626801D090420AD2811A8B4285
:100D700007D9121A13442B602046FFF7D9FF00242D
:100D800000E00124FFF7CAFA204638BD00C307205F
:100D9000E4C10720014B01221A6070472CC30720D1
:100DA00008B9064B1868026B1346981A13F8011B12
:100DB000A529FAD0C0F38F00704700BFE8C2072012
:100DC000054B1B6833B1054B1B68002B0CBF022081
:100DD0000020704701207047ECC10720E4C20720C3
:100DE0002DE9F041044600283BD01F4DC36A2A6814
:100DF000D26A934235D282691C4E002AA8BF2A6863
:100E00004FF01407A8BFD26A07FB0363A4BFC2F167
:100E10000A02826142699A4220D100F104084046E8
:100E200000F0A7FB124B48B9E06A4743F2592AB9D0
:100E300019680122824021EA02021A602A68012010
:100E4000D26A4146E2621C68904020431860142038
:100E500000FB0260BDE8F04100F067BB2B68DB6A75
:100E6000C362BDE8F08100BFE8C207201CC20720B2
:100E700028C30720F8B5044608B90020F8BD836CE4
:100E8000C16A426C013B91428364F6D0002BF4D1DD
:100E9000051D284600F06DFB104E114A50B9E76A57
:100EA0001421794373582BB910680123BB4020EA01
:100EB00003031360636C1068C3F10A01E362A1616C
:100EC000012404FA03F108431060142000FB0360BE
:100ED000294600F02AFB2046F8BD00BF1CC20720AF
:100EE00028C30720044B1A681AB119688A6C0132AA
:100EF0008A641868704700BFE8C2072038B5FFF75A
:100F000041FC154D00242B19D3F8B43023B104F162
:100F1000B4002844FFF780FA143C14F1C80FF2D152
:100F20000E4B1A68126812B11868FFF775FA0C4B6D
:100F30001A68126812B11868FFF76EFA0948036858
:100F40000BB1FFF769FA084B00221A60FFF75AFA53
:100F5000BDE83840FFF7C8BC1CC20720E8C1072025
:100F600004C3072014C30720E0C1072010B5FFF712
:100F70003FFA064B064A196829B119681468CB6C08
:100F80001B1B0344CB64106010BD00BFE8C20720E8
:100F9000E0C1072008B5FFF72BFA014B186008BD28
:100FA000E0C1072038B51546026C044632B9056821
:100FB00045BB4068FFF75EFF656024E06DB980685F
:100FC0000BF02FFCA268236C13446268A360934269
:100FD00018D323682846A36015E0C0680BF021FCF5
:100FE000236CE2685B4221681A448A42E2603EBF99
:100FF00062689B18E360022D04D1A36B13B1A36B4D
:10100000013BA3630020A36B0133A36338BD37B555
:10101000446D0A46E36BA16B019099420ED201A97F
:101020002046FFF7BFFF636A054643B104F1240081
:10103000FFF746FE002818BF012500E000252846DE
:1010400003B030BD03461A6C10B4084662B1D968CB
:101050005C681144A142D96028BF196810BC28BF40
:10106000D960D9680BF0DDBB10BC704738B50446B9
:10107000FFF742F904F12405A36C002B15DD636D25
:1010800043B100212046FFF7C2FF012809D1FFF735
:1010900081FE06E0636A43B12846FFF711FE00288F
:1010A000F5D1A36C013BA364E6E74FF0FF33A364E3
:1010B000FFF734F9FFF720F904F11005636C002BFA
:1010C0000BDD23694BB12846FFF7FAFD08B1FFF7A6
:1010D00061FE636C013B6364F0E74FF0FF336364D0
:1010E000BDE83840FFF71AB910B50446FFF74AFBD0
:1010F00020460BF069FB0446FFF7F6FB0CB9FFF73F
:101100009FF8204610BD10B5044640B1FFF73AFBEA
:1011100020460BF061FBBDE81040FFF7E5BB10BDBA
:1011200038B504460D46FFF7E7F8206CE36B2268FC
:101130004343D1181B1A13446160E36000214FF050
:10114000FF33A163A2606364A36455B9236983B1CB
:1011500004F11000FFF7B4FD01280AD1FFF7B4F83D
:1011600007E004F1100000F0D2F904F1240000F0CF
:10117000CEF9FFF7D3F8012038BD2DE9F0410F4635
:101180009046064608B900241CE05820FFF7ACFF43
:1011900004460028F7D007FB06F00130FFF7A4FF54
:1011A0000546206050B1E663276401212046FFF721
:1011B000B7FF002384F85080636503E02046FFF703
:1011C000A2FF2C462046BDE8F08110B502220C4655
:1011D0000021FFF7D2FF00B1846310BD2DE9F04379
:1011E0000027044689461E46B84685B00192FFF79F
:1011F00083F8A26BE36B9A4201D3022E1CD13246D4
:1012000049462046FFF7CEFE636D43B13146204686
:10121000FFF7FDFE01280BD1FFF756F808E0636ADF
:1012200023B104F12400FFF74BFDF3E70028F3D1CD
:10123000FFF774F8012044E0019D1DB9FFF76EF837
:1012400028463EE017B902A8FFF772FDFFF766F8DF
:10125000FFF798FAFFF750F8636C013308BFC4F842
:101260004480A36C013308BFC4F84880FFF756F8E8
:1012700001A902A8FFF768FDE8B9FFF73DF8A76BE1
:10128000E56BFFF74BF8AF420FD1019904F1100065
:10129000FFF7E8FC2046FFF7E9FEFFF725FB08B162
:1012A0000127A4E7FFF710F8FAE72046FFF7DEFE74
:1012B000FFF71AFBF4E72046FFF7D8FEFFF714FB11
:1012C000002005B0BDE8F08370B506465820FFF752
:1012D0000BFF0446E0B101230025C3634FF0FF3349
:1012E000856345604364056083648560C56005640B
:1012F00080F850604565103000F009F904F12400D1
:1013000000F005F92B462A4629462046FFF766FFDE
:10131000204670BD2DE9F041044615461E4688461C
:10132000FEF7DEFFA26BE36B07469A4201D3022E63
:1013300024D1324641462046FFF734FE10B10DB1AC
:1013400001232B60A36C013313D1636D33B131469C
:101350002046FFF75CFE01280ED106E0636A5BB110
:1013600004F12400FFF7ACFC30B12DB101242C6056
:1013700005E0A36C0133A364012400E00024384697
:10138000FEF7C8FF2046BDE8F0812DE9F0430026B6
:10139000044688469946374685B00192FEF7ACFF71
:1013A000A36B3BB341462046E568FFF74BFEB9F11E
:1013B000000F12D1A36B013BA363236813B9FFF79E
:1013C00091FD606023698BB104F11000FFF778FC98
:1013D00001280BD1FEF778FF08E0636AE5602BB1C6
:1013E00004F12400FFF76CFC0028F3D1FEF796FF10
:1013F000012049E0019D1DB9FEF790FF284643E01A
:1014000016B902A8FFF794FCFEF788FFFFF7BAF9B8
:10141000FEF772FF636C013308BF6764A36C01338E
:1014200008BFA764FEF77AFF01A902A8FFF78CFCAA
:1014300020BBFEF761FFA56BFEF770FFC5B92368FF
:1014400033B9FEF759FF6068FFF7CAFCFEF766FF85
:10145000019904F12400FFF705FC2046FFF706FE82
:10146000FFF742FA08B1012698E7FEF72DFFFAE7E9
:101470002046FFF7FBFDFFF737FAF4E72046FFF7BA
:10148000F5FDFFF731FA002005B0BDE8F0832DE946
:10149000F041054688461746FEF722FFAC6B06462C
:1014A000C4B141462846FFF7CDFDAB6B013BAB63B2
:1014B0006B6C01330AD12B695BB105F11000FFF7AA
:1014C000FFFB30B12FB101243C6003E06B6C0133B2
:1014D0006B6401243046FEF71DFF2046BDE8F08115
:1014E00010B50446FEF708FFA46BFEF717FF204671
:1014F00010BD806B704713B5002302AC44F8043D67
:101500000A462146FFF741FF019802B010BD00F1E5
:10151000080343604FF0FF32C36003610023826021
:101520000360704700230361704743689A684B600B
:101530008A609A68516099600368086101330360AA
:1015400070470A6830B5531C01D1036907E000F108
:1015500008035C682568AA4201D32346F9E75A6864
:101560004A6091608B6059600368086101330360D1
:1015700030BD4168826803698A6082685160596839
:10158000884208BF5A60002202611868013818605A
:101590007047FFFF08B5FFF7E9FC094B094A1978C6
:1015A000094B1039C9B253F82130934203D107488F
:1015B00001F0D3FCFEE79847BDE80840FFF7EABC1E
:1015C00004ED00E04901010004C00720F42F0200EF
:1015D000036888B000934368114A019383680293BB
:1015E000C36803930369049343690593836906936E
:1015F000C36907930B4B9A64069ADA64059A013A19
:101600001A65079A5A654FF08043AA221A7200227F
:101610001A70009B019B029B039B049B08B07047C0
:10162000EFBEADDE0040024010B5104B104C012162
:101630000846236001F09CF923684FF0FF329A615D
:101640004FF47A72DA6100221A620A4A5A6240F250
:1016500009225A615A6942F040025A61064B04223B
:101660001A60182283F8022310BD00BF00800040DA
:1016700038C3072060E3160000E100E0084B10B516
:101680001B68084C9A682188986889B28242F9D808
:101690000B46002242EA00021046194610BD00BF68
:1016A00038C3072034C3072010B504468EB006A8FF
:1016B00009F02EFC0A9B069A05930B9B074904939D
:1016C0000C9B204603930D9B0293099B0193089B5F
:1016D0000093079B0CF0EAFC0EB010BDA430020092
:1016E00010B5044C23681BB9012009F00BFC2060E5
:1016F000206810BD30C3072038B52B4C2368254621
:101700001A6812F0100F0ED010221A60FFF7E8FFCF
:101710002368D96A06F08AF92268936803F51C5396
:101720001033136238BD540707D504221A60FFF73F
:10173000D7FFBDE8384006F087B9D00707D50122AA
:101740001A601A4A138801339BB2138038BD91077F
:1017500015D502221A60FFF733FB022802D006F0EB
:1017600001F904E02A68536923F0080353612A68E9
:101770009168D3690B4403F57A73D36138BD1207BE
:101780000ED508221A60AA214FF08042117255210D
:1017900011729A6802F5B71202F558725A6238BD92
:1017A00003480CF063FAFEE738C3072034C3072070
:1017B00069310200014B1878704700BF3CC3072015
:1017C00003490B6803604B6843608B688360704714
:1017D0003DC3072030B585B001F04EF9684601F0F1
:1017E000EFF87A4C009B2360019B6360029BA3602F
:1017F00000F0A8F900F000FA754BB0FBF3F03C28BC
:10180000744B05D829280DD2142808D83A2211E0A3
:1018100050280AD964280BD844F23A020AE041F26F
:101820003A0207E042F23A0204E043F23A0201E0EF
:1018300045F23A0268491A6008230B764B768B769C
:1018400081F82030654B982283F8052383F806231E
:1018500083F8072383F80823902283F80A2383F868
:101860000B2383F80C23702283F80E2383F80F23B5
:10187000582283F8122383F8132383F8142383F860
:101880001523782283F81923A02283F8002383F8F4
:10189000012383F8022383F8032383F8042383F8C6
:1018A000092383F80D2383F8102383F8112383F889
:1018B000162383F8172383F8182383F81A2383F851
:1018C0001B2383F81C2383F81E2383F81F2383F82C
:1018D000202383F81D2383F8212383F822234FF646
:1018E000FF03CA680020134043F0BF6343F4003392
:1018F000CB6000F0D9F961B662B64FF4164000F043
:1019000085F8374C374809F021FA374809F024FAAE
:10191000206800231946022280680CF0D3FA206860
:1019200000230222194640680CF0CCFA09F058FA5C
:101930002E4A4FF080435A6003221A70AA221A726C
:10194000244C55221A72D4F88031294D13F0010F1E
:1019500009D0284800F0A2F801232B70D4F8803178
:1019600043F001030CE0D4F880319B070BD52248EB
:1019700000F094F802232B70D4F8803143F0020376
:10198000C4F880311FE0D4F8803113F0040319D07B
:101990001A4B9A6C1A4B9A4205D1052319482B70A1
:1019A00000F07CF80AE0042317482B7000F076F86A
:1019B000D4F8803143F00403C4F880310F4B002287
:1019C0009A6400E02B7005B030BD00BF3DC3072016
:1019D00040420F0000C00F4000ED00E000E100E0D9
:1019E00044C10720851A01006D1A0100C0C62D00F0
:1019F0003CC307208A310200CD3102000040024082
:101A0000EFBEADDEA7310200C431020010B50446BE
:101A100000F0F2F82401B0FBF4F009F0A5FF002279
:101A2000104B09F065FE0AF015F8012184B203207D
:101A300000F03EF90121032000F052F90A4B1A6828
:101A400022F0F0021A601A6842F050021A60A3F500
:101A5000003380221A73220A1A71E4B203221C7026
:101A60001A7310BD0000E03F00C00240034A136833
:101A7000DB07FCD5024B1878704700BF14C000404C
:101A800000C00040034B044A187013685B06FCD585
:101A90000120704700C0004014C0004008B5411E3E
:101AA00011F8010F10B1FFF7EDFFF9E70A20BDE8CB
:101AB0000840FFF7E7BFFFFF034BAA22C3F88C20C3
:101AC0005522C3F88C20704700C00F402DE9F04F1D
:101AD00000240C6014601C6040F2FF14DFF860A06A
:101AE0004FF4FA5504FB055B002606F1010CBBFB25
:101AF000FCF8124FA8F58625A5F50E75BD4203D951
:101B00006646202EF1D113E0032505F10109B8FB4B
:101B1000F9FED64504D9B9F5807F4D46F5D1EFE7FA
:101B200086450C6016601D60F5D10120BDE8F08F80
:101B3000013C052CD4D10020BDE8F08F38320400E0
:101B4000A086010030B52B4985B0D1F88030002443
:101B500023F0020304AD45F8044D01940294C1F84A
:101B60008030FFF7A9FFD1F8803023F00103C1F8DE
:101B70008030FFF7A1FFC1F80C41C1F88440FFF7A6
:101B80009BFF2B46C1F8044102AA01A94BF6803005
:101B9000FFF79CFF30B92B4602AA01A945F6C050B9
:101BA000FFF794FF019B134963F30F04029B63F358
:101BB00017440023C1F80C31C1F88440FFF77CFFC3
:101BC0000123C1F88030FFF777FFD1F8883009484A
:101BD0005B01FAD5039BC0F804310323C0F88030C1
:101BE000FFF76AFFD0F8883013F0407FFAD005B0D5
:101BF00030BD00BF00C00F40234AD2F88830C3F385
:101C00000163032BD2F80C3103F003032AD1012B1B
:101C10000BD0022BD2F88830D2F88810D2F8040109
:101C200014D0C3F30E02194B08E0D2F88830D2F872
:101C30008810D2F80401C3F30E02154B02FB0333E4
:101C4000C1F307420132B3FBF2F308E0C3F30E0322
:101C500001331A04C1F307430133B2FBF3F3C0B2FB
:101C600001300EE0D2F80401012BC0B200F10100F6
:101C700003D0022B03D0074B03E0074B01E04FF4E6
:101C80000043B3FBF0F0704700C00F4000127A0031
:101C900000366E0100093D00001BB70080F3098883
:101CA000704780F30888704780F311887047FFFF02
:101CB00038B504460D46FEF71FFB084A0123D2F84B
:101CC000C410A3400DB10B4301E021EA0303C2F8A5
:101CD000C430BDE83840FEF721BB00BF00C00F4054
:101CE0002DE9F0414FEA40080E46FEF705FB42465B
:101CF0000320002109F0EAFC0A4F4246D7E90045DB
:101D000024EA000425EA010506F00300002109F099
:101D1000DDFC20432943C7E90001BDE8F041FEF79F
:101D2000FDBA00BFA8C10F400120704770B505463D
:101D3000164609B9002070BD4C1E14F8011F39B1B8
:101D40002B6832465B68284698470028F5D1F1E7B2
:101D5000012070BD38B504461546FFF7E7FF2A4657
:101D60002046BDE838400149FFF7E0BF04320200D9
:101D70002DE9F74307460D4690469946002402AEEA
:101D800006F8014D3B684A461B683146384698477D
:101D900078B19DF807200D2A03D00A2A1CBF2A70AB
:101DA00001350134444503DA0A2AEBD1012000E071
:101DB0000020002CC4BF00232B7003B0BDE8F083CB
:101DC0000EB433B50446FEF7FBFF022806D100230C
:101DD0004FF0FF321946E068FFF7D7FA06AB0093E1
:101DE000009B059A2189606801930DF027FC2389E7
:101DF000054698420ADB20F00F01103189B221819B
:101E000060680BF09DFF60600028E9D14FF0FF3261
:101E100061682046FFF78AFFFEF7D2FF022805D14E
:101E200000231A461946E068FFF7D8F9284602B0A1
:101E3000BDE8304003B07047064B10B50360002387
:101E400004464360038103740120FFF73DFAE0601C
:101E5000204610BDF0310200044B10B5044603606B
:101E6000406808B10AF0B8FC204610BDF03102000D
:101E70002DE9F84345790446894690461E46089F59
:101E80000DB100255FE0002BFBD0FEF799FF022883
:101E90002CD0236820222761A661A57584F81490B0
:101EA00084F815801A60FFF7E9FB4FF47A7200237B
:101EB0000AF0E4F810F57A7641F1000700231A469B
:101EC0001946E068FFF761FA20B1A57DB5FA85F5FE
:101ED0006D0938E0FFF7D2FB4FF47A7200230AF065
:101EE000CDF88F4208BF8642E8D2EEE72B464FF48A
:101EF0007A722946A068FFF748FA0028C1D02B461D
:101F00002A462946E068FFF740FA23682022A57593
:101F100084F8149084F815802761A66129461A6018
:101F2000E0682B464FF47A72FFF72FFA20B1A57DB7
:101F3000B5FA85F56D0900E0054600231A461946F5
:101F4000A068FFF74BF92846BDE8F88341F001018E
:101F5000FFF78EBF1FB5002404AB03F8014D012429
:101F60000094FFF7F3FF9DF80F0004B010BD01F0DF
:101F7000FE01FFF77DBF1FB504AC04F8013D01234E
:101F800000932346FFF7F3FF04B010BD1FB50022F6
:101F900004AB03F8012D0092FFF7D8FF05B05DF800
:101FA00004FBFFFF38B500250446016045710120A0
:101FB000FFF78AF90322A06029460120FFF7DDF828
:101FC0002B462A46E0602946FFF7DFF92368094AD5
:101FD000934201D10A2309E0074A934201D10B231E
:101FE00004E0064A93420CBF0C236323237120466E
:101FF00038BD00BF00C0014000C0054000000A40DD
:1020000090F9043070B50B2B05460C46164606D0E9
:102010000C2B07D00A2B34D10121072004E0012129
:10202000132001E001211A20FFF742FEB6F57A7F66
:102030009ABF4FF47A71714313492B68B4FBF1F1E5
:102040006C229A61490828224A436420B2FBF0F2CC
:102050001A613C225143B1FBF0F100225961DA6070
:102060001A625A629A6240221A6095F9043001207D
:102070005909064A03F01F0300FA03F342F821301E
:1020800070BD002070BD00BFA086010000E100E02F
:10209000036830B559680246282945D009D8102967
:1020A00024D018292AD0082977D1027D02F0FE0217
:1020B00037E0402954D00AD838296ED1017D5B68B9
:1020C00011F0010F937514BF0120022030BD50297B
:1020D0004ED0582961D181699B680B70036820211B
:1020E0009961102119600821996152E0027D42F046
:1020F00001029A6008229A61002030BD14692020F4
:102100009861082164B99861102018609961196874
:10211000C906FCD4137DDD074CBF0120022030BD71
:10212000527D9A609961E7E7007D10F0010001D0CF
:1021300020222CE0116949B92021996110211960F0
:10214000082199611968CC06FCD4E3E79469013948
:1021500014F8015B9D609461116108229A6130BDA1
:1021600002692021012A99614FF004020FD80CE086
:102170009B68816904220B70836901338361036961
:10218000013B012B0361036801D19A61B2E71A6038
:10219000B0E71968C806FCD4BCE7596891752021DE
:1021A000996110211960082199611968C906FCD448
:1021B000B0E7FFFF13B50446FFF76AFF68B10023DD
:1021C00002AA42F8043D1946E068FFF7A3F8019B14
:1021D0001BB1034B4FF080521A6002B010BD00BF1C
:1021E00004ED00E010B50446024B0360FFF734FE37
:1021F000204610BD2C32020010B50446FFF7F2FF56
:10220000204608F081FE204610BD10B50446FEF7BA
:10221000D7FD022807D1E069FFF762F918B1012064
:10222000FEF7FEFBF7E7012010BD37B50446154663
:102230008DF80710FEF7C4FD022808D09DF807208E
:1022400063691A706269137D5906FCD517E0002393
:102250002A460DF10701E069FEF7C0FF80B163690E
:102260001B7D5B060BD500231A460DF10701E069C3
:10227000FFF78BF818B163699DF807201A700120E9
:1022800003B030BDF8B5064614460F4609B9002024
:10229000F8BD8369002BFAD0FEF792FD022809D120
:1022A000002322463946B069FFF76FF8003018BFA7
:1022B0000120F8BDFFF7E2F94FF47A72002309F02C
:1022C000DDFE20440446002500231A463946B06945
:1022D000FFF75BF858B9FFF7D1F94FF47A72002392
:1022E00009F0CCFE8D4208BF8442EDD2CFE7012039
:1022F000F8BDFFFF4369802210B51A730446006AD7
:102300000901B0FBF1F009F02FFB0022074B09F0A7
:10231000EFF909F09FFB636980B2020A1A716369E1
:10232000C0B21870636903221A7310BD0000E03F49
:1023300073B54269002301938DF803309368044616
:1023400003F00E03042B17D00C2B15D0022B35D124
:10235000C069FFF7CEF8E38C984203D9E069FFF734
:10236000C8F8E0841026002501AA0DF10301E069F8
:10237000FFF78DF820BB2DE0FEF718FA0025A062CC
:1023800063691A7DD2070ED51B7801AA8DF8033038
:102390000DF103010023A069FEF7BCFF019B002B98
:1023A00018BF0125ECE7A069FFF7A3F8A38C9842BA
:1023B00010D9A069FFF79DF8A0840BE0137D0EE013
:1023C00063699DF803201A70019B002B18BF01253B
:1023D000013EC9D11DB1034B4FF080521A6002B0CB
:1023E00070BD00BF04ED00E038B504460D46FFF7B0
:1023F00023FD064B656123600023A361E361236233
:10240000A384E384A362204638BD00BF2C320200BF
:1024100070B516461D46264A43690446934201623A
:1024200005D101210320FFF743FC202211E0214ABE
:10243000934205D101211820FFF73AFC802208E0E1
:102440001D4A93422FD101211920FFF731FC4FF48F
:1024500080721A4B31461A60636941221A726269AE
:102460002046137A43F006031372FFF743FFA26975
:1024700042B9082D28464FF00101B8BF0820FEF7E9
:102480007CFEA061E2693AB9049801210828B8BF2E
:102490000820FEF772FEE061636907225A60A369B3
:1024A0000BB1E3690BB9002070BD012070BD00BF06
:1024B00000C000400080094000C0094000E100E089
:1024C00008B501211D20FFF7F3FB034B01221A631E
:1024D0001A6BD207FCD508BD0040005073B54FF011
:1024E000FF33B1F5805F01934AD2284B1C69E407A2
:1024F00048D4274C2469E60744D4264CE5686D0788
:1025000001D5A568FAE7244C0325A5602561234C75
:102510001E4E1C60254622B101AC746041F000449F
:1025200002E0706041F00844F46000249C6041F2D5
:1025300006041C61164C1AB1206041F0806101E074
:1025400001AA22600022E1606560A2604FF4086287
:1025500022611A6942F001021A61226942F0010205
:1025600022610C4A516A41F003015162D868C0F3FC
:102570000B000028FAD1536A23F00303536202E0F0
:10258000012000E0022002B070BD00BF20410050D9
:10259000004100500000034000400050080003408C
:1025A000074A0121136801FA00F023F0E06323F0E9
:1025B000FF031360136843F0807303431360704795
:1025C0000040034007B500230B4A019352680B48B3
:1025D000C2F30B12ADF802200DF1020101AA00684E
:1025E000FEF798FE019B1BB1054B4FF080521A601D
:1025F00003B05DF804FB00BF004003404CC307205C
:1026000004ED00E010B5FFF7F7FA0121C4080C2033
:10261000FFF74EFB03210C20FFF762FB114A4FF43A
:102620000013114913600223B4FBF3F0884204D86D
:10263000116841EA0323136003E00233B3F5807F9E
:10264000F2D10120FEF740FE084B00221860022163
:102650000120FEF792FD064B4FF480021860054BF7
:102660001A6010BD004003403F5DC60050C3072004
:102670004CC3072000E100E0F7B507284FF0000445
:102680000546ADF806402AD8FEF79AFB0228164EFA
:1026900019D1164F234621464FF0FF323868FEF716
:1026A00074FE2846FFF77CFF23460DF106014FF02C
:1026B000FF323068FEF769FE23462246214638681D
:1026C000FEF78CFD0BE02846FFF76AFF00231A4651
:1026D0000DF106013068FEF758FE0028F6D0BDF86F
:1026E000060003B0F0BD00BF4CC3072050C3072055
:1026F00070B5174B0E465C69164B05461A6C1A20CE
:1027000022F470021A641A6C04F4406442F4200249
:102710001A64996E41F440619966196821F4700158
:102720001960196841F4200119600321FFF7D8FAF4
:10273000FFF762FAB4F5406F06D13246C108284669
:10274000BDE87040FFF75CBC01236B71002070BDD9
:1027500000C0092000C0024010B504460249FFF73E
:1027600021FC204610BD00BF00000A4038B5074CD0
:10277000236833B91C2008F0C5FB0546FFF7ECFFC2
:1027800025602068BDE83840FFF714BD54C307201A
:1027900010B50446024B0360FFF75EFB204610BDF8
:1027A0002C32020010B50446FFF7F2FF204608F075
:1027B000ABFB204610BDFFFFF7B50D460D490446A3
:1027C0000868164620F0F000086008681F4640F0D0
:1027D0005000086001210320FFF782FAFFF70CFA8E
:1027E0000097014633462A462046FFF711FE03B004
:1027F000F0BD00BF00C0024010B504460349FFF71A
:10280000F3FD034B2046236010BD00BF00C0004015
:10281000A032020038B5074C236833B92C2008F0E9
:1028200071FB0546FFF7E8FF25602068BDE83840EA
:10283000FFF77EBD58C3072010B50446024B036066
:10284000FFF70AFB204610BD2C32020010B50446EB
:10285000FFF7F2FF204608F057FB204610BDFFFFB0
:10286000F7B50D460D4904460869164620F4702058
:10287000086108691F4640F42020086101211820E2
:10288000FFF72EFAFFF7B8F90097014633462A46BC
:102890002046FFF7BDFD03B0F0BD00BF00C0024001
:1028A00010B504460349FFF79FFD034B2046236004
:1028B00010BD00BF008009400833020038B5074C46
:1028C000236833B92C2008F01DFB0546FFF7E8FF0D
:1028D00025602068BDE83840FFF72ABD5CC30720AB
:1028E00010B50A4C23681BB90120FEF7EDFC2060EF
:1028F000FEF766FA022808D1002320684FF0FF3265
:102900001946BDE81040FEF740BD10BD60C307206A
:1029100010B5FEF755FA022808D1BDE8104004486A
:1029200000231A4619460068FEF758BC10BD00BFC8
:1029300060C3072008B5044B1B689847034A137A05
:1029400043F00103137208BD64C3072000000B406D
:102950001FB50446054B0DF1100E0FCB0EE90F000D
:102960000EEB840454F8100C04B010BD1C330200AC
:1029700073B50E460546FFF7EBFF04460E4B0121EB
:10298000186802AB1D440090019015F8080CFFF781
:102990008FF9012115F8040CFFF7A2F90023012299
:1029A000A36062602367FFF727F9044BB0FBF3F0E5
:1029B0004643E66002B070BD2C33020040420F0077
:1029C000F0B5124B87B06C461D46074693E80700EA
:1029D0008DE8070003AE93E8070086E807000C22A5
:1029E0003146204609F00EFF40B195E8070084E823
:1029F000070095E8070086E80700F0E703CC386099
:102A000020687960B860384607B0F0BD14400240D5
:102A1000184B00221A720278C2F3050283F82020B4
:102A20004278C2F3050283F824208278C2F30402BC
:102A300083F82820C278C2F3020283F8302002799A
:102A4000C2F3040283F82C204279C2F3030283F814
:102A50003820C279817902F00F0241EA02229A8776
:102A6000427A017A02F00F0241EA02229A8601229A
:102A70001A727047004002401FB501210920FFF77C
:102A800017F9304B01221A7201A8FFF799FFBDF820
:102A90000A3003F62603C3F30B030F2B1ED89DF851
:102AA000053003F03F033B2B18DC9DF8043003F0A6
:102AB0003F033B2B12DC9DF8063003F01F03172B5E
:102AC0000CDCBDF80C30C3F30B03B3F5B77F05DAAC
:102AD0009DF8093003F00F030C2B2FDD9DF8083013
:102AE000012262F304038DF808309DF8093001A833
:102AF00062F3030340F2DA728DF80930BDF80A3050
:102B000062F30B03ADF80A309DF807306FF3020350
:102B10008DF807309DF806306FF304038DF806300A
:102B20009DF805306FF305038DF805309DF80430EE
:102B30006FF305038DF80430FFF76AFF05B05DF809
:102B400004FB00BF0040024007B501A80CF0EEFAFC
:102B500001A809F02EFC03B05DF804FB10B5044693
:102B6000024B0360FFF778F9204610BD2C320200BB
:102B700010B50446FFF7F2FF204608F0C5F92046DD
:102B800010BDFFFFF7B50D460D490446486A1646CD
:102B900020F070604862486A1F4640F070604862EA
:102BA00001211920FFF79CF8FFF726F8009701464E
:102BB00033462A462046FFF72BFC03B0F0BD00BF8A
:102BC00000C0024010B504460349FFF70DFC034B5B
:102BD0002046236010BD00BF00C0094084330200BE
:102BE00038B5074C236833B92C2008F08BF905461B
:102BF000FFF7E8FF25602068BDE83840FFF798BB85
:102C000068C30720026830B5D36913F0040310D0FD
:102C100002F1300301F1100451F8045BA14243F8C2
:102C2000045BF9D1438A013343822123536001209D
:102C300030BD184630BDFFFF2DE9FF41254D440151
:102C400055F804802F19D8F80C60D8F808303343B1
:102C5000D90719D57868FEF74CFCFB8908F12001EB
:102C6000984288BFF88100232F191A467868FEF72A
:102C700051FB18B1BB8A0133BB8202E0BB8901332F
:102C8000BB810423C8F8043040F20263334093B19F
:102C90002F19B868FEF72DFC3B8A0022984288BFA6
:102CA00038822F196946B868FEF7F1FB18B16946FA
:102CB0003846FFF7A7FFB20603D52B199B693046AC
:102CC0009847330703D52C44E3693046984704B04E
:102CD000BDE8F08190C00720084B10B5D3F8C44080
:102CE000A20402D50020FFF7A7FF630404D5BDE8C6
:102CF00010400120FFF7A0BF10BD00BF00C00F4073
:102D000070B590F853508AB0044605B9457C284602
:102D100004F0D8FC002294F8523084F8522094F841
:102D2000542006460092012104F13A02284604F09C
:102D3000FDFA044670B1314602A804F00BFE48B11A
:102D40009DF80C3003F0C003C02B03D19DF8083070
:102D5000AB4200D0002420460AB070BD10B5044636
:102D6000024B0360FFF778F8204610BDDC33020009
:102D700010B50446FFF7F2FF204608F0C5F82046DC
:102D800010BD70B50E46037E90F83110044699428E
:102D900034BF012500250BD31146113004F0D2FDBC
:102DA00030B1257E0023ED1A84F8313018BF01259B
:102DB0003DB194F831305A1C84F831201C44637EB4
:102DC0003370284670BD10B590F85240621CD2B2E4
:102DD0000444172A80F8522084F83A1002D9036874
:102DE0009B689847012010BD70B50446FFF724F892
:102DF0000C4B002523602126032384F854303246EF
:102E0000294684F8535004F1110009F030FD324690
:102E1000294604F1320009F02AFD072004F054F994
:102E2000204670BDDC33020070B505460E461446E0
:102E30007CB12B686BB12268134208D06368984755
:102E400022682B6823EA02032B6023683360A4689E
:102E5000EEE770BDF8B5012484400F4616461D46C6
:102E600010D079B10C2009F0AFFC58B133682A6852
:102E70008360054B80E8900014434FF400123060EB
:102E80002C601A60F8BD00BF00E100E01FB5184CCF
:102E90001849636868460093A3680193636A0293C4
:102EA000A36A0393144B1A68FFF7BEFF134B114933
:102EB0001A6801A8FFF7B8FF114B12491A6802A857
:102EC000FFF7B2FF104B0F491A6803A8FFF7ACFFDA
:102ED000009B0BB9019B13B14FF0FF33E360029BE2
:102EE0000BB9039B13B14FF0FF33E36204B010BD85
:102EF000808002408C80024074C3072078C3072082
:102F00006CC30720AC80024070C3072010B4144685
:102F10000029064A0649074B18BF1346064A18BF40
:102F20000A46214610BCFFF795BF00BF94800240BF
:102F300078C307209080024074C3072010B5044670
:102F4000FDF7DAF9013C14F8010F10B1FEF79AFD14
:102F5000F9E7BDE81040FDF7E1B90FB470B5C2B0B4
:102F600046AC54F8046B4FF480752A46002102A841
:102F700009F07DFC23463246294602A801940CF054
:102F80005DFB044602A8FFF7D9FF204642B0BDE82A
:102F9000704004B07047FFFF37B5002302AC44F81F
:102FA000043D0C4D10B9034602460CE00A222146AE
:102FB0002868FEF7EAF9034648B907490A8801324A
:102FC0000A804FF0FF3221462868FEF7DEF90198AB
:102FD00003B030BD98C3072082C30720F0B500249A
:102FE000ADF50D7D0D4607460294FEF747FB4FF405
:102FF0007A72002309F042F84FF40972064621461E
:1030000003A809F034FCDDB112221D4903A805F024
:10301000A7FF044680B9069903A806F01CFA0446E7
:1030200030B902AB2A46394603A806F0EBF804464D
:1030300003A806F0FEF904E012480AF0A5FD00E03E
:103040002C46FEF71BFB4FF47A72002309F016F8AA
:103050000D4B801B1A889042029A88BF18809542B7
:103060000CBF0126002606D0059B21460093074889
:103070002B460AF089FD30460DF50D7DF0BD00BFF1
:10308000203402002A34020080C307203E340200AC
:103090002F4B2DE9F74F1D68DFF8BC902E46DFF867
:1030A000BCA005F5806802AF002347F8043D4EF64A
:1030B00060223946D9F80000FEF767F908B1019B94
:1030C0002BB9711B2846FFF789FF2E46EBE7D9F88D
:1030D0000000FEF705FABAF80030019C0130984272
:1030E00088BFAAF8000020460BF0C1F80A23235439
:1030F00000F1010B019A002106EB0B0402F80B1002
:10310000A045019916D8C6EB0802304609F089FBA4
:10311000C8EB04044FF480612846FFF75FFF3CB121
:103120000199C4EB0B0322461944284609F079FBA8
:103130002C4403E05A46304609F073FB054800234F
:103140004FF0FF3239460068FEF748F82646AAE7F6
:1031500094C3072098C307207CC307209CC3072083
:1031600073B502AC44F8040D0D4629B100234FF0AD
:10317000FF3221460A480EE006460BF078F80A2393
:103180003354019B411C5D540198FFF727FF2B46E8
:103190002A46214603480068FEF720F802B070BDB9
:1031A0007CC3072098C3072007B5FDF709FE022856
:1031B0000CD1084B1B684BB10748002302A941F80A
:1031C000043D4FF0FF320068FEF708F803B05DF8E9
:1031D00004FB00BF94C307207CC3072003289ABFC9
:1031E000024B53F820000020704700BF84C3072023
:1031F000014B1888704700BF82C30720014B188815
:10320000704700BF80C30720014B1888704700BF7C
:103210009CC307202DE9F0412E4D86B02C688046D6
:10322000002C54D14FF48060059409F0CDFA2A4E59
:10323000286040B92868002835D009F0CDFA254B20
:1032400000221A602FE0224604210A20FDF795FF94
:10325000224F2246386004210A20FDF78EFF3B688A
:103260003060002BE6D00028E4D00A24962009F034
:10327000ABFA05900028DDD000231A4605A9306876
:10328000FDF7ACFF013CF1D1039402940194CDF819
:10329000008023464FF4C07211491248FDF76CF9C3
:1032A0000028C7D013E033681BB90F480AF0DEFCD2
:1032B0000DE00A2400231A4605A93068FEF765F8D8
:1032C00010B1059809F088FA013CF3D1EDE706B09A
:1032D000BDE8F08194C3072098C307207CC3072072
:1032E000713402009130010078340200012303FAA6
:1032F00000F0044B1A7809B1104301E022EA000003
:1033000018707047D0C007202DE9F04F9A46444B03
:1033100097B01B6806460C461546002B7DD00FA8BB
:10332000FFF74EFBFEF7AAF94FF47A72002308F07C
:10333000A5FE8146FDF744FD3A4B821ED2F10008FE
:1033400016AF48EB02080FCB07E90F005CB12F2145
:1033500020460AF0DFFF20B95C2120460AF0DAFFA0
:1033600010B1441C00E0304CDFF8BCB04046002DEA
:1033700008BF5D46FFF710FE9DF83E1095F800C0AF
:1033800001F01F0E9DF83D109DF8412001F03F0116
:103390000B919DF83C109DF8403001F03F010C91DD
:1033A00016A901EB860151F8101C03F01F030D91C3
:1033B0001E49CDF800E0BCF1000F08BF5946079147
:1033C0000D9902F00F0204910C99CDF820A0029102
:1033D0000B990695019105941549CDF80C90074677
:1033E0000AF064FE21ABC0F19501209A38440E9397
:1033F0000CF024F90F4A414652F826303846013382
:1034000042F82630FFF7ACFE0B4B1B7843FA06F66A
:10341000F30702D538460AF029FC17B0BDE8F08F53
:1034200094C30720103402008F3D02003C36020096
:103430009D34020084C30720D0C007200FB40E4B78
:1034400037B51B6893B1FDF7BBFC831E5C425C4142
:103450002046FFF7A1FD054607AB9521069A01938B
:103460000CF0ECF821462846FFF77AFE03B0BDE8E1
:10347000304004B0704700BF94C30720012070475C
:103480000120704701207047936810B4013B002B66
:10349000936008DA9469A34202DBCBB20A2B02D113
:1034A00010BC0CF007B91368581C10601970C8B232
:1034B00010BC70470A4B70B51B780D467BB1094EA6
:1034C000441E14F8011F21B130688268FFF7DCFF49
:1034D000F7E725B12846BDE870400AF0C7BB70BDCC
:1034E0009EC3072044C1072070B50C460B4E451EF5
:1034F00015F8011F21B130688268FFF7C5FFF7E7B3
:1035000024B12046BDE870400AF0B0BB034B0A214D
:103510001868BDE870408268FFF7B6BF44C1072055
:103520003E4B2DE9F3411A68036904469A4236D1AD
:1035300000273D4600213A48FFF7BCFF3949606A41
:10354000FFF7B8FF00213848FFF7B4FF374B1E687C
:103550008EB1D6F800800137D8F8003040461B699C
:10356000766898470028F3D13149D8F82400FFF74E
:10357000BBFF0125ECE70DB92E4E06E031462E4883
:10358000FFF7B2FFFDF7F2F809E0AF4207D00023E2
:103590001A4619463068FDF721FE0135F5E7254842
:1035A00000234FF0FF3219460068FDF7EEFEFDF7ED
:1035B000F1F802AE46F8040DFDF7ECF80546606838
:1035C00018B1E168FDF797FFA0602368A16A5B6905
:1035D00020469847074630B9606A1849FFF784FFCC
:1035E0003846FDF7EDFAA3690133A361236A1BB1E5
:1035F000FDF7D0F8854206D3E1690029DFD03046D7
:10360000FDF7D6F9DBE7FDF7C5F8256A0544206923
:10361000FDF7C6FB80006061EEE700BFACC307208A
:10362000103502001435020041350200B0C30720F6
:103630006E350200A8C3072087350200AF350200AF
:103640002DE9F043324E85B0316821B93148FFF79A
:103650004BFF012058E04FF000084546C1460021CD
:103660002D48FFF727FF3468ECB12768646807F13D
:103670001003FA6ACDF80C90CDF80890019397F8F2
:103680003030C2F38F020093796A3B46234808F139
:103690000108FCF771FF0028E6D12149786AFFF79D
:1036A00023FF0125E0E721464046FDF78EFD1D4B37
:1036B000186020B921461C48FFF716FF012500219C
:1036C0001A48FFF7F7FE34686CB1276864683B68F6
:1036D00038469B6898470028F6D11549786AFFF765
:1036E00003FF0125F0E72046124B3268196842B10A
:1036F00017685268FE6AB042F9D23969304601242F
:10370000F5E704B11960284605B0BDE8F08300BFB5
:10371000B0C30720DF3502000D360200213501005D
:1037200024360200A8C307203F360200623602009A
:103730007D360200ACC3072010B5044638B108201E
:1037400007F0E0FB024B04601A681860426010BD8D
:10375000B0C307200C4B10B518700846FFF770FF78
:10376000044650B901460948FFF7A4FEFDF7C6FB21
:10377000FCF7D2FF2146064801E006480021BDE8DB
:103780001040FFF7B1BE00BF9EC307209136020074
:10379000AC360200D036020070B50B4D41620560B8
:1037A000002545608560056145618561C5614EF60E
:1037B000602504994FF47A76C66005628162C26220
:1037C00080F8303070BD00BFF8340200044B1A6836
:1037D00090423ABF5B6853F820000020704700BF5A
:1037E000A0C3072013B5002302AA42F8043D0C46EB
:1037F00000681946FDF78EFD019B1BB1236843F05D
:1038000001032360012002B010BD30B5044685B02D
:1038100001A80D46FFF7D4F89DF80630227903F091
:103820001F039A421CD19DF80530627903F03F03D3
:103830009A4215D19DF80430A27903F03F039A42D1
:103840000ED12068002304AA42F8103D19460068F2
:10385000FDF760FD009B1BB12B6843F001032B605B
:10386000012005B030BDFFFF30B5224A87B0137884
:10387000214C43F001031370002503A80295FFF7C4
:103880009FF82B46009502AA1C49206800F0B2FA66
:103890009DF80C3013F03F031BD1009302AA174987
:1038A000606800F0A7FA9DF80D3013F03F0310D1C7
:1038B000009302AA1149A06800F09CFA9DF80E300E
:1038C00013F01F0305D1009302AA0C49E06800F031
:1038D00091FA00230A48009302AA0A49006800F0FE
:1038E00089FA029B1BB1084B4FF080521A6007B057
:1038F00030BD00BF00400240B4C30720E5370100DF
:10390000C4C307200B38010004ED00E010B50446E5
:103910000123002A23704FF00003D4BF1A4602F19E
:10392000FF32A1600846E36023616260002108F075
:103930009EFF204610BD38B50446806818B1237834
:103940000BB908F049FFE5682DB12846FFF7F3FFF2
:10395000284607F0D9FA204638BD80680AF087BCAF
:1039600040687047836800221A7070470EB403B530
:1039700003AA52F8041B806801920BF091FE02B07A
:103980005DF804EB03B070470CB4F7B5002408AB46
:1039900002AD53F8047B45F8044D2A4680680E4674
:1039A00000930BF030FB78B13B1B002B0CDD009B30
:1039B0001A1D1B68009203B118602A463146002088
:1039C0000BF021FB0134EEE7204603B0BDE8F040E8
:1039D00002B0704708B50B46816818460AF035FCFE
:1039E000B0FA80F0400908BD08B580680AF0F2FB23
:1039F000B0FA80F0400908BD2DE9F74F0F788A46EC
:103A0000A7B386684FF0FF3533788BB333787BB339
:103A100038460BF09FFB014630460AF008FC38B9E7
:103A200038460BF0A3FB014630460AF000FCE8B133
:103A30000446851B0AF10108461C14F8010FC14613
:103A400088B198F800B008F10108BBF1000F0AD066
:103A50000BF080FB019058460BF07CFB019B8342EE
:103A6000EBD04FF0FF3599F80030CEE74FF0FF353F
:103A7000284603B0BDE8F08F08B5FFF7BDFF013061
:103A800018BF012008BD10B5846820460AF055FC17
:103A900008B1001B10BD4FF0FF3010BD70B50446DB
:103AA00008460D460AF0E3FB06462046FFF755FFA1
:103AB000864208DC32462946A0680AF003FCB0FAC8
:103AC00080F0400970BD002070BD70B50546084605
:103AD0000C460AF0CCFB06462846FFF73EFF86421E
:103AE00008DC3246A96820460AF0CAFBB0FA80F02A
:103AF000400970BD002070BDF8B5044608460E466A
:103B000017460AF0B4FB05462046FFF726FF85421C
:103B10000CDCA368314620465D5DFFF7D6FF30B16F
:103B2000BD4204D0B5FA85F04009F8BD0020F8BDCB
:103B300038B50C460546FFF710FF002C024609DD9C
:103B4000A04207DBA868121B0132011908F074FEBD
:103B5000012038BD002038BD38B50C460546FFF7BA
:103B6000FCFEA042A4BFAA68001B4FF00003A6BF42
:103B700013540120184638BD70B50D46064614464C
:103B8000FFF7EBFE002D11DBA8420FDD002C0DDD51
:103B9000421B9442A8BF1446B068121B611901442D
:103BA0000132284408F048FE012070BD002070BD9D
:103BB00070B505460E46FFF766FF431C044609D064
:103BC00030460AF054FB214602462846BDE87040C4
:103BD000FFF7D2BF002070BDF8B585680F462B46B1
:103BE0000024591B13F8016B3EB1BC4203D096422E
:103BF000F7D10134F5E7FFF79BFF201C18BF012028
:103C0000F8BDF8B506460D46FFF7A7FE07460024A7
:103C1000BC420EDA28460AF02AFB2B465A1B824287
:103C200007DAB16813F8012B095D9142F6D101342E
:103C3000EEE72CB121463046BDE8F840FFF778BFEB
:103C4000F8BDF8B5054608460C460AF010FB0746D5
:103C50002846FFF782FE0026013800280DDB2346A8
:103C60001A1B974209DDAA6813F801EB1118125CC0
:103C70007245F5D10E700138EFE7F8BDFFF7AABE27
:103C800080687047806808F090BB38B50C460546E0
:103C9000FFF763FEA042A868C8BF001938BD0378CB
:103CA00070B50546FBB909B1013100E004211024CB
:103CB00091FBF4F4AE68013424016C604EB92046E7
:103CC00008F082FDA86048B12246314608F0CFFDD9
:103CD00004E0611C30460AF033F8A860A8680030A0
:103CE00018BF012070BD002070BD0022027042602C
:103CF0008260C2600261FFF7D2BF10B50446FFF7D1
:103D0000F4FF204610BD43688B4201DAFFF7C7BFBE
:103D1000012070470EB4F3B5064607AB53F8047B99
:103D200000240093B06880B17568009B01353A4665
:103D3000294601930BF082FC8542044605DC411CB8
:103D40003046FFF7E0FF0028ECD1204602B0BDE886
:103D5000F04003B0704738B505460C46FFF7FDFD4F
:103D60006B682118994205DD2846BDE838402031AE
:103D7000FFF795BF012038BD38B5044608460D460B
:103D80000AF075FA01462046FFF7E5FF20B1294603
:103D9000A0680AF03DFA012038BD07B50023ADF850
:103DA000043002AB03F8041D1946FFF7E5FF03B02A
:103DB0005DF804FB70B5044608460D460AF057FA54
:103DC0006368014698420DDD2046FFF768FF06460E
:103DD00040B962682946A0680AF089FAA268636857
:103DE000D65470BD2946A068BDE870400AF037BAC5
:103DF000FFF7E0BFF8B50D4616461F4608B901208B
:103E0000F8BD0029FBD00468002CF8D0069B3A4688
:103E100031462068A84708B16468F5E7F8BDFFFFA0
:103E20002DE9F84F1C4F04468846002B18BF1F464B
:103E3000914672B369B3436882689A421CD305689D
:103E40005D1919D2A900C06809F07AFFA668E06080
:103E50004FEA860AB5420ED9102007F053F8834680
:103E60001022002108F003FDE368013643F80AB090
:103E70000AF1040AEEE76560A368E268591C52F88B
:103E800023300A9AA160C3F800905F60C3F80880ED
:103E9000DA60BDE8F88F00BF8F3D02002DE9F043E6
:103EA0000C4691B081464FF0FF321D492046FDF788
:103EB0003DFF0025D9F808309D4227D2D9F80C30B3
:103EC00053F82570D7F8048040460AF0D0F920282E
:103ED00014D943463A68134968460AF0E7F80A21BC
:103EE00068466E460AF016FA864202D20E490AF079
:103EF000B6F931462046FDF763FF05E043463A68D0
:103F00000A492046FDF75CFF0135D3E74FF0FF3249
:103F100007492046FDF71EFF11B0BDE8F08300BF42
:103F2000063702001A370200A33102002D370200C3
:103F3000393702002DE9F041054608460F4616467E
:103F4000FFF70BFD002823DD0024AB689C4217D24D
:103F5000EB68384653F82480D8F80010FFF744FD8A
:103F600060B1D8F8041029B10A780C4B002A08BFB8
:103F7000194600E009494FF0FF3204E00134E4E75C
:103F800007494FF0FF323046BDE8F041FDF7E2BE91
:103F900031462846BDE8F041FFF780BF6537020093
:103FA0008937020038B50D4600242846FFF7D5FCB6
:103FB000844208DA21462846FFF767FE0378202B63
:103FC00001D00134F1E721462846FFF7B1FD28462C
:103FD000BDE838400149FFF714BE00BF524A020055
:103FE0002DE9F0410C4690B04B4906462046154657
:103FF000FFF727FE202249492046FFF77DFD08B93B
:10400000074615E021463046444AFFF7CBFF2A46D3
:1040100021463046FFF78EFF79E0F368202253F8FF
:1040200027802046D8F80010FFF766FD30B9013729
:10403000B3689F42F1D34FF000083BE0D8F800206E
:1040400021463046FFF7AEFFD8F80830D8F80C20EC
:10405000294620469847002859D128464FF0FF327C
:104060002F49FDF777FE4FF0FF32D8F804102846AD
:10407000FDF770FE4BE0F368202253F828700DEB3B
:10408000020103A8FFF742FC396803A8FFF7B0FE5E
:10409000002301AA2349204601930293FFF766FCFF
:1040A00001A80AF0E4F8012808D803A8FFF743FCA8
:1040B00008F10108B3689845DDD320E001A903A801
:1040C000FFF703FD0028F0D03A6821463046FFF79D
:1040D00069FFBB68FA6829462046984758B94FF0EF
:1040E000FF320F492846FDF735FE4FF0FF32796861
:1040F0002846FDF72FFE03A8FFF71DFC07E0284622
:104100004FF0FF320849FDF725FE002000E00120B6
:1041100010B0BDE8F08100BF04320200AE370200EB
:10412000B3370200D83702008937020070B506465F
:10413000FDF7A4FA841941F10005FDF79FFAA942A1
:1041400008BFA042F9D370BD08B5FCF739FE831E45
:104150005842584108BD10B50446FFF7F5FF20B19D
:104160002046BDE81040FCF75BBC4FF47A7060431A
:10417000BDE81040FFF7DABF38B50D46FFF782FD06
:104180000446C0B202F08EFF054A064B06490028DD
:1041900018BF134622462846FDF712FE012038BDFF
:1041A000ED420200E1370200E837020030B50C466C
:1041B000054687B00A49FDF703FEA18823880491CC
:1041C000218962880391E18828460291E17A019170
:1041D000A17A00910349FDF7F3FD07B030BD00BFA0
:1041E000FF370200353802002DE9F0418CB003ABF7
:1041F000002600930D46904602AB022238490296F3
:104200000396FFF7C1FBB04266DD029808F0CDF8D7
:10421000C7B2039818B10AF02AF8C4B200E0044605
:10422000002104A803F08EFB30B14FF0FF322D497E
:104230002846FDF78FFDF3E7022318F100010093F4
:10424000039A234618BF0121384603F06FF806464B
:1042500038B94FF0FF3224492846FDF77BFD01268F
:104260003AE0B8F1000F37D04FF47A7104A803F0A8
:1042700071FB60B39DF81030BB4228D19DF8173018
:104280000C2B04D13A4606A92846FFF78FFFBCB98C
:1042900016492846FDF794FD9DF817309C420ADA2E
:1042A00004AB19192B684FF0FF325B68097A284676
:1042B00098470134F0E70E492846FDF781FD0BE0F1
:1042C0004FF0FF320B492846FDF744FD04E0029A07
:1042D00009492846FDF774FD30460CB0BDE8F08171
:1042E000524A020053380200753802009D3802001D
:1042F00064470200B1380200CE3802001FB501A8A1
:104300000C4603F0F1F902F0D9FE01A9024620465D
:10431000FFF74CFF012004B010BDFFFF30B58BB09C
:104320000AAA4FF47A730C4642F8243D1749FFF766
:104330001DFB0025019902A803F004FBD8B19DF8EC
:10434000082013492046FDF73BFD00259DF80F305E
:104350009D420ADA02AB591923684FF0FF325B68BD
:10436000097A204698470135F0E70A492046FDF7CB
:1043700027FD0125DEE72DB94FF0FF320649204623
:10438000FDF7E8FC01200BB030BD00BFE03D0200AE
:10439000F43802008E3D02000B39020037B50C469E
:1043A00003F006F8054616492046FDF709FD1549B4
:1043B0002A462046FDF704FD11492046FDF700FD81
:1043C000D5B111492046FDF7FBFC0D492046FDF70C
:1043D000F7FC0025E8B202F0D5FF013540B1817845
:1043E00043780278009120460849FDF7E9FCF1E79F
:1043F00003492046FDF7E4FC012003B030BD00BFB7
:104400001C39020037390200513902006C390200B0
:104410002DE9F3473C4C074626688946002E62D1B9
:10442000242006F06FFD0423054680E848008660DE
:10443000C6602021304609F083FCAE68E8604FEA90
:104440008608072E0ED8102006F05CFD824610224A
:10445000002108F00CFAEB68013643F808A008F1D7
:104460000408EEE7002608236B604FF00108274B95
:10447000274A28492846009685F820802560FFF7BE
:10448000CFFC254B254A264920680096FFF7C8FC3B
:10449000244B254A254920680096FFF7C1FC244B90
:1044A000244A254920680096FFF7BAFC234B244A8A
:1044B000244920680096FFF7B3FC234B234A244984
:1044C0002068CDF80080FFF7ABFC224B224A204940
:1044D00020680096FFF7A4FC0096204B204A214953
:1044E0002068FFF79DFC20493846FFF7C7FB18B14D
:1044F0001E493846FFF77CFC4A463946206802B020
:10450000BDE8F047FFF76CBDCCC307208739020038
:10451000C1390200BD470100C83902001C3A02003F
:1045200091450100253A0200B35102001D430100EC
:10453000483A02004448020079410100723A020000
:104540008E3A02009D430100953A0200FC3A0200B7
:10455000E9410100D63A0200FB3A0200003B0200AA
:104560001B3B0200FD4201008F3D0200AE370200FE
:1045700038B5064C236833B9582006F0C3FC05460D
:10458000FEF732FC2560206838BD00BFC8C3072095
:104590002DE9F04F0446ADF2DC5D802288460DA87F
:1045A000002108F064F9802200212DA808F05FF9AD
:1045B00006AE002333600DAA00962DAB7549204648
:1045C000FFF7D4F9032801D00020DFE001220DA974
:1045D000EDA804F0C5FC05460028F5D1FFF7C8FF9B
:1045E0003368802280F853304DA9044608A88DF81E
:1045F00017500795FFF78AF92DAB009333680DAA82
:1046000065494046FDF7DCFBA94607AE33464FF44B
:1046100000726DA9EDA804F03DFD002840F0AF80C8
:104620003368002B00F0AB806F1C32685B4920467A
:10463000FDF7C6FB236820469B6898477D1E0DF555
:10464000DA7B4FF0000A6DAB3268C3EB0B039A4282
:1046500023680CD9CDF80CB05B684FF0FF321BF823
:10466000011B20469847039B1B789A44EBE79B6805
:104670002046984708A8FFF703FB834608A8FFF7E2
:104680006FF94FF47A73024659462046FDF770FBE6
:10469000202201210DEB0200FFF79EFA08A8FFF788
:1046A000F1FA824520D008A8FFF7ECFA52460346FB
:1046B0003B494046FDF784FB3A492046FDF780FB25
:1046C000236820469B68984723684FF47A721B68DA
:1046D0000DF11701204698470028F5D1022F07F168
:1046E00001034CD81F46A0E733682DAA2E4900933A
:1046F00020464B46FDF764FB236820469B6898479D
:1047000008A8FFF7BDFA824608A8FFF729F9514625
:1047100002464FF47A732046FDF72AFB234908A886
:10472000FFF7AAF9D0B908A8FFF7AAFA204902466C
:104730004046FDF745FB1B492046FDF741FB23683A
:1047400020469B68984723684FF47A721B680DF1E6
:104750001701204698470028F5D1BFE7154908A85A
:10476000FFF746FB3368144999444A46F09B40469C
:10477000FDF726FB002D3FF448AFBD1E45E7EDA831
:1047800004F057FE08A8FFF7D6F801200DF2DC5D13
:10479000BDE8F08F213B0200303B0200473B0200A6
:1047A000593B02008E3D0200803B0200963B020016
:1047B000993B02008F3D0200D13B02002DE9F047FA
:1047C000074686B006AA002442F80C4D0E463D4925
:1047D000FFF7CCF8202201213846FFF7FDF9039BB3
:1047E000002B65D03846FFF7B8F8002860D0FFF7F7
:1047F000BFFE05460DF1180808F80D4D2B6805227F
:104800001B6841462846984704460028F6D1039B7A
:10481000384685F85330FFF733FA274601464FF004
:10482000FF322846FDF796FA2B6828469B68984782
:10483000254B0DF11809186849F8044D04902B68B0
:104840004FF47A721B68414628469847D0B103223C
:104850000DF11501484607F0EFFF9DF80BA004226B
:1048600004A948468DF817A007F0CCFF50B1336873
:1048700001225B6851463046013798470028DED157
:104880000134DCE71822B7FBF2F302FB137202B12A
:1048900001333A460D493046FDF792FA74B161236F
:1048A000009322460A4B0B493046FDF789FA05E092
:1048B0004FF0FF3208493046FDF74CFA012006B0B0
:1048C000BDE8F087E03D0200DD370200DD3B02007D
:1048D000043C02003D3C0200F63C020070B5ADF520
:1048E0000A7D05460C46FFF738F80B2802DD0C223E
:1048F0001F4936E02846FFF7C3F90122014601A807
:1049000004F02EFB064638BB01A804F092FD2846B1
:10491000FFF7B6F917490246049B2046FDF750FA07
:10492000236820469B6898470A20FCF779F8FBF734
:10493000D7FC2846FFF7A4F902460F4B00685168E0
:1049400003C390680D4A186043F80C2C4FF0804365
:10495000AA221A721E7007E02846FFF791F9024654
:1049600007492046FDF72CFA01200DF50A7D70BDA0
:10497000223D0200493D0200484002400DD0ADDE1C
:10498000903D02002DE9F041404CA4B0236806465A
:10499000DB070D460CD4204606F074FE40B14FF400
:1049A000806007F011FF3A4B1860204606F076FE53
:1049B00038493046FFF789F80746044600B380229D
:1049C000002104A807F053FF00230293039303ABD5
:1049D000009304AA02AB30493046FEF7C7FF2C49CA
:1049E000029B039A096804A813B903F0FBF901E0DC
:1049F00003F01AFA294B2A49002818BF194638E053
:104A000028493046FFF761F8074600283AD004AB42
:104A1000304603AA2449039404948DF80840FEF715
:104A2000A5FF039E049B3344B3F5806F02DCDFF8DF
:104A300060800CE04FF480621C4920E0D8F8003020
:104A40009DF808209A559DF8083001361C44039BB8
:104A5000049AF31A934210DAB6F5806F0DDA2B68D8
:104A60004FF4FA621B6802A9284698470028E5D14E
:104A70000F492846FDF7A4F904E022460D492846CF
:104A8000FDF79EF9384624B0BDE8F081D4C3072075
:104A9000D0C30720BB3D0200C23D0200A93D020079
:104AA000A53D0200D23D0200D93D0200E33D0200D7
:104AB000073E0200173E020070B50F4D0F4E2C68E6
:104AC00014F0010415D1284606F0DCFD88B14FF43E
:104AD0000E7006F017FA302380F835323A2380F84A
:104AE000344280F8363280F837423060284606F08B
:104AF000D5FD306870BD00BFE8C30720ECC30720B8
:104B000070B50F4D0F4E2B6813F0010416D12846D7
:104B100006F0B8FD90B14FF40E7006F0F3F90123E2
:104B200080F83432312380F835323A2380F8363237
:104B300080F837423060284606F0B0FD306870BD1E
:104B4000E0C30720E4C307202DE9F04FADF50B7D4E
:104B50000F46FFF797F8041E04DDFCF7CFF9204657
:104B6000FBF75EFF0DF114094C462A4D4FF0640B24
:104B70000FCD0FC42B6804AA2360102100240AA8BB
:104B80000494FBF775FF244A824624493846FDF712
:104B900017F926460AAD4FF00008D0451CD06B69C6
:104BA000A34215D1AA69049B16441BB1B3FBFBF3C6
:104BB000B2FBF3F3297B03920293AB8B00949B002F
:104BC000019359F821306A6815493846FDF7F8F81D
:104BD00008F101082035E0E701340A2CDAD1049B02
:104BE00064229E1BB3FBF2F30E49B6FBF3F30E4AAD
:104BF00000963846FDF7E4F8FBF7E4FD102804D9E9
:104C000010220A493846FDF7DBF801200DF50B7D2F
:104C1000BDE8F08F243E0200433E0200483E020001
:104C20006F3E0200973E02008C3E0200B63E02003C
:104C300010B50C46ADF5007D6846FCF735FD204605
:104C40004FF0FF326946FDF785F801200DF5007D34
:104C500010BDFFFF30B50C4691B02C490546FEF75C
:104C60001DFF002847D00CAB04930BAB03930AAB9A
:104C7000029309AB019308AB009306AA07AB244942
:104C80002846FEF773FE072801D000203BE09DF880
:104C90003930069A0DA862F303038DF83930079A6C
:104CA0009DF8383062F304038DF83830089ABDF867
:104CB0003A3062F30B03ADF83A30099A9DF836307A
:104CC00062F304038DF836300A9A9DF8353062F3AA
:104CD00005038DF835300B9A9DF8343062F30503E7
:104CE0008DF834300C9A9DF8373062F302038DF85A
:104CF0003730FDF78DFEFDF727FF064902462046B7
:104D0000FDF75EF8012011B030BD00BFFE5102007A
:104D1000E03E020036370200F7B50D464E49044624
:104D2000FEF7ACFF064640B1FEF73EFA4FF0FF3209
:104D30004A492846FDF70EF88BE049492046FEF720
:104D40009DFF60B3FEF754FA464902462846FDF738
:104D500037F8FEF759FA444902462846FDF730F87D
:104D6000FEF74CFA414902462846FDF729F830463D
:104D7000FEF734FA04460120FEF730FA0646022018
:104D8000FEF72CFA07460320FEF728FA0097019059
:104D90003346224636492846FDF712F859E0354990
:104DA0002046FEF77BFE50B1202201212046FEF76F
:104DB00013FF2046FEF764FFFEF740FB49E02E4953
:104DC0002046FEF76BFE064620B92C492046FEF72A
:104DD00065FE60B32A492046FEF74EFE60B92949B8
:104DE0002046FEF749FE28B920462749FEF744FE33
:104DF000044602E0032400E0022431462046FEF788
:104E000075FA224A224B002E18BF1A463CB1012CDB
:104E100007D01C491A4B022C18BF0B4602E01D4B51
:104E200000E0194B1C492846FCF7CAFF11E0204658
:104E3000FEF726FF194A1A490090FB230120FEF7CE
:104E400063FA2046FEF71CFF164902462846FCF787
:104E5000B7FF012003B0F0BD0A3F0200103F02007F
:104E6000293F0200303F0200453F02005A3F020046
:104E7000793F0200A93F0200AD3F0200B53F0200AA
:104E8000CA340200CF3402001E510200013F02006A
:104E9000F93E0200C4340200BE3F0200383E020068
:104EA000D73F02000740020030B589B004AB0024B0
:104EB00000930D4603AB0222184903940494FEF7B5
:104EC00063FD022827D107AB009305AA06AB04991E
:104ED000039805940694079402F0E8FE024638B160
:104EE000049B0F4900932846039BFCF769FF10E0E1
:104EF000059A069B002A079908BF0122002B08BFCC
:104F00000123B1FBF3F3B1FBF2F228460549FCF7AC
:104F100057FF012000E0204609B030BD524A020090
:104F200015400200344002002DE9F0470E46ADF571
:104F3000856D39490546FEF73BFE38490746284648
:104F4000FEF75FFE35492846FEF77BFE2846FEF752
:104F500097FE0122014681A804F002F8044640B100
:104F60002846FEF78DFE2E4902463046FCF728FF04
:104F70004CE00DF1040A01464FF40072504607F070
:104F800076FC0094FCF77AFB804689466B464FF42A
:104F90000072514681A804F07DF808B9009B23BB3C
:104FA00081A804F046FACFB1FCF768FB4FF47A729F
:104FB000002307F063F8002305464FF47A72404659
:104FC000494607F05BF8281A14BF03460123B4FBD7
:104FD000F3F3224613493046FCF7F2FE4FF0FF325E
:104FE00011493046FCF7B6FE10E01C44002FCDD12D
:104FF0003D46009B9D42C9D233681AF805105B6894
:105000004FF0FF32304698470135F2E701200DF5A9
:10501000856DBDE8F08700BF62400200524A020081
:105020006B4002007F4002008F3D02002DE9F047F7
:105030000023BEB00C46534905460C93FEF71EFEF6
:1050400020B92846FEF71CFE064600E04E4E3146CB
:1050500015A804F0A7FA054630B1034632464B497D
:105060002046FCF7ADFE89E0324649492046FCF770
:10507000A7FE2F460DF1780880230DA915A8CDF8BD
:105080004C80149304F0D2FA002861D19DF83D3091
:10509000002B5DD09DF83C100DF13D00CA065BBFB2
:1050A0000D9B0C9A44229B185BBF0C932D2201355B
:1050B000013711F0010F14BF52232D23BDF83AA080
:1050C00011F0020F09900D9814BF4FF0480E4FF0E9
:1050D0002D0E11F0040F14BF4FF0530C4FF02D0C98
:1050E000089011F0200FCAF34510BDF83810079052
:1050F0004FEAEA20069001F01F000590C1F343102B
:105100004FEA612114BF4FF041094FF02D0901F220
:10511000BC71CDF804C0CDF800E004900391CDF847
:1051200008901C492046FCF74BFE4FF0FF321A490D
:105130002046FCF7FBFD41464FF0FF322046FCF7CE
:10514000F5FD4FF0FF320F492046FCF703FE91E7D3
:105150003A46124900950C9B2046FCF731FE0BAAFB
:105160000CA9304604F091FA40B90B9B0C499A788F
:105170000C9B20465A435208FCF722FE01203EB009
:10518000BDE8F0878F3D02009A4002009D4002007A
:10519000C1400200DC400200094102000D41020052
:1051A0003741020070B50C460646FEF769FD05461C
:1051B0003046FEF765FD04F02AFB064A064B074918
:1051C000002808BF13462A462046FCF7F9FD0120B7
:1051D00070BD00BFED420200F74202004B410200E9
:1051E00070B50C460646FEF74BFD05463046FEF709
:1051F00047FD04F0AFFA064A064B0749002808BFEE
:1052000013462A462046FCF7DBFD012070BD00BF97
:10521000ED420200F7420200674102007FB503AB96
:10522000002400930E4602AB02220F49029403941D
:10523000FEF7AAFB022814D1029C039D20462946B2
:1052400004F08EFB094B0A49224600280CBF084691
:1052500018462B46009007493046FCF7B1FD012067
:1052600000E0204604B070BD524A0200F74202003E
:10527000ED4202007941020030B5ADF50D7D0C46DE
:105280000546FEF7FDFC0A22014603A803F068FE6E
:1052900040B12846FEF7F4FC1F4902462046FCF7C1
:1052A0008FFD34E08DF8070002901C4942F2107324
:1052B0007E222046FCF784FD19492046FCF780FD3C
:1052C000236842F210721B680DF1070120469847CF
:1052D00018B19DF807307E2B03D103A804F0A9F87C
:1052E00015E002AB01220DF1070103A803F08AFFCC
:1052F00058B9029B012B08D123684FF0FF325B683D
:105300009DF8071020469847DAE70649D5E70120BF
:105310000DF50D7D30BD00BF91410200B841020086
:10532000F0410200104202002DE9F04FADF5417D41
:10533000002304AC236003930D46009403AB0222C8
:105340004149FEF721FB022806D04FF0FF323F49CA
:105350002846FCF7FFFC72E0216817A804F022F948
:1053600010B122683A4906E0039917A804F01AF927
:1053700028B1039A37492846FCF722FD5FE04FF435
:1053800080720DEB020105A8FEF7C0FA4FF480729F
:1053900080A90AA8FEF7BAFA20AE80270FA917A89D
:1053A0001596169704F042F9002842D19DF8453031
:1053B000002B3ED09DF8443003F0100303F0FF0AA9
:1053C000002BEBD10DF14503039A234905A8FEF705
:1053D000A1FC0DF1450322681F490AA8FEF79AFCBB
:1053E00005A8FEF74DFC07460AA8FEF749FC8046D3
:1053F00005A8DDF83C90FEF743FC83460AA8FEF7BB
:105400003FFC534652460146CDF800A0584602F0F4
:105410004DFC124A124BCDF8009000280CBF1846E4
:1054200010461049019043463A462846FCF7C8FC0E
:10543000B3E70AA8FEF77FFA05A8FEF77CFA012079
:105440000DF5417DBDE8F08F524A0200374202005F
:105450007C420200A1420200C1420200F742020067
:10546000ED420200C7420200F8B50D462449064647
:10547000FEF704FC0446074618B1FFF741FB002283
:1054800008E020493046FEF7F9FB044660B1FFF71B
:1054900013FB3A46114600F2352004F0F1FA4FF0C2
:1054A000FF32194B194922E019493046FEF7E6FB55
:1054B000044658B1FFF724FB012200F2352103F026
:1054C00011FD4FF0FF32134B134910E013493046E2
:1054D000FEF7D4FB044680B1FFF7EEFA012200F29A
:1054E000352103F0FFFC0E4B0E494FF0FF32002830
:1054F00018BF19462846FCF72DFC2046F8BD00BF12
:105500004E43020058430200F0420200E64202000D
:10551000654302000D430200FD4202006E4302009B
:10552000324302002443020008B508464FF0FF3220
:105530000849FCF70FFCFDF737FE4FF4FA60FBF764
:105540006FFA4FF08043AA221A7200221A700120CB
:1055500008BD00BF7A43020010B501200C46FEF7DB
:1055600035F940B100231A461946FBF737FE4FF0D4
:10557000FF32054902E005494FF0FF322046FCF7B3
:10558000E9FB012010BD00BF8B430200A1430200D4
:1055900038B5064C236833B91C2005F0B3FC05462A
:1055A000FDF7DAF82560206838BD00BF54C3072036
:1055B0002DE9F04F0D46C7B055498146FEF785FAF3
:1055C000544982464846FEF780FA53498346484686
:1055D000FEF77BFA00270DF1100805AE044602978E
:1055E0000397C8F800703760BAF1000F45D00096F5
:1055F00003AB02AA49494846FEF7B8F9012807DC7F
:1056000028464FF0FF324649FCF7A4FB38467CE0C1
:105610000DF118084FF4807422463946404607F0D1
:1056200026F9336813B90123336003E0B3F5807FB3
:1056300088BF3460FFF7ACFF33689DF80C209DF8FD
:10564000081000934346FCF781FC364A364B374935
:10565000002818BF1346029A2846FCF7B1FB002425
:1056600033689C424ED2039A18F8043022443049E1
:105670002846FCF7A5FB0134F2E7BBF1000F2CD064
:10568000CDF8008003AB02AA2A494846FEF76EF91E
:10569000032807D028464FF0FF322749FCF75AFB72
:1056A000504632E0FFF774FF98F800309DF80C2068
:1056B0009DF80810FCF75FFC48B1039B1F4900935D
:1056C000D8F80020029B2846FCF77AFB1AE0029AE1
:1056D0001B492846FCF774FB14E0A8B1022302938F
:1056E000029BFE2B10DCFFF753FF9DF80810FCF720
:1056F0004DFC20B1029A13492846FCF761FB029B3E
:105700000233ECE7012000E0204647B0BDE8F08F0F
:10571000984B0200DA430200E0430200E943020032
:10572000F8430200ED420200F74202001944020071
:105730003D4402004D4402005D44020084440200E6
:105740009E440200BB44020038B5084C23685BB994
:105750000C2005F0D7FB0546FFF71AFF90232B71AD
:1057600000232860AB602560206838BDD8C30720BF
:1057700010B5FFF7E9FF0446074808F077FA20461E
:1057800002F082FA06F012F902460B46034808F0CE
:10579000FBF9012010BD00BFE1440200EE4402000D
:1057A0002DE9F04F554C91B023680E4633B92C20AB
:1057B00005F0A8FB0546FDF71FF825602768FFF7F1
:1057C0007BF900240CAA0DA900F235200D9403F0FA
:1057D0005CFF48B90C9A0D9C95699378023D5C4337
:1057E0005D4364086D0800E02546FFF7ADFF02F059
:1057F0004BFA814606F0FCFB0A9006F055FA01468A
:10580000484606F09BF93E4906F0A2FA06F0F0FB86
:1058100081460DA8FBF7D4FF05F00AFA68B3FDF73F
:105820005FF805F0EFF94FF0000A0346D346D04683
:105830009A450B930BD0504605F048FA804538BF87
:10584000D3460B9B38BF80460AF1010AF0E7FDF70B
:105850005FF8642303FB08F32A4ACDF80880B3FB02
:10586000F2F3C3F164030093CDF804B02B46224653
:1058700025493046FCF7A4FA05E02B462246234989
:105880003046FCF79DFA224C23681BB9012005F035
:1058900039FB2060206802F0BBF90446FDF754F99B
:1058A000FB8C0A9A0993BB8C1A4908939DF83430F3
:1058B000019003F03F0307939DF83530009403F007
:1058C0003F0306939DF83630304603F01F030593DF
:1058D000BDF83A30C3F30B0304939DF8383003F05E
:1058E0001F0303939DF8393003F00F0302934B46D7
:1058F000FCF766FA012011B0BDE8F08F58C307200D
:1059000000002041A0860100084502003C4502003D
:10591000DCC307204A450200014808F0A7B900BFD0
:10592000C745020038B504460D46FCF765F9074B3C
:10593000B0FBF3F00223B0FBF3F2AA4204D9B3F5B3
:10594000807F01D00233F6E7236138BD40420F006B
:105950007FB500F235260C460122314603F0C2FA2B
:10596000054648BB039002AA03A9304603F08DFE0A
:1059700000BB0298039A837802FB03F18269134803
:10598000023A5A435208B2F5004F38BF0120104B7B
:105990004FEA510124BF03464FF48060B1FBF0F1A0
:1059A000B2FBF0F20091019321460A4808F0ECF8AE
:1059B000012008E0084B00E0084B2A462146084831
:1059C00008F0E2F8002004B070BD00BF05460200F8
:1059D000024602000F4602000B4602000846020083
:1059E0003D46020038B5074C23684BB9082005F046
:1059F00089FA0546FFF7CCFD402328602B7125600E
:105A0000206838BDF8C3072038B5054C256825B98E
:105A1000012005F077FA05702060206838BD00BFCE
:105A2000F4C3072010B5044C23681BB9012005F00E
:105A300069FA2060206810BDDCC3072010B5044C53
:105A400023681BB9012005F05DFA2060206810BDB5
:105A5000F0C30720AD49AE4A4023F0B58B614FF04B
:105A6000007393614FF480338B61AA4BADF5057DD4
:105A70001868072520F0F00018601868022440F02C
:105A800050001860186820F440501860086840F012
:105A900040000860186820F47C201860186840F402
:105AA00028201860186820F470001860186840F406
:105AB00020001860186820F040401860186840F016
:105AC00000401860586820F03C005860586840F06A
:105AD00028005860586820F003005860086840F4B7
